{
  "contractName": "Composable",
  "abi": [
    {
      "constant": true,
      "inputs": [],
      "name": "totalPayments",
      "outputs": [
        {
          "name": "",
          "type": "uint256"
        }
      ],
      "payable": false,
      "stateMutability": "view",
      "type": "function"
    },
    {
      "constant": true,
      "inputs": [
        {
          "name": "",
          "type": "uint256"
        }
      ],
      "name": "tokenIdToCompPricePermission",
      "outputs": [
        {
          "name": "",
          "type": "bool"
        }
      ],
      "payable": false,
      "stateMutability": "view",
      "type": "function"
    },
    {
      "constant": false,
      "inputs": [
        {
          "name": "_to",
          "type": "address"
        },
        {
          "name": "_tokenId",
          "type": "uint256"
        }
      ],
      "name": "approve",
      "outputs": [],
      "payable": false,
      "stateMutability": "nonpayable",
      "type": "function"
    },
    {
      "constant": true,
      "inputs": [],
      "name": "totalSupply",
      "outputs": [
        {
          "name": "",
          "type": "uint256"
        }
      ],
      "payable": false,
      "stateMutability": "view",
      "type": "function"
    },
    {
      "constant": true,
      "inputs": [
        {
          "name": "_tokenId",
          "type": "uint256"
        }
      ],
      "name": "approvedFor",
      "outputs": [
        {
          "name": "",
          "type": "address"
        }
      ],
      "payable": false,
      "stateMutability": "view",
      "type": "function"
    },
    {
      "constant": true,
      "inputs": [
        {
          "name": "",
          "type": "uint256"
        }
      ],
      "name": "tokenIdToCompositionPrice",
      "outputs": [
        {
          "name": "",
          "type": "uint256"
        }
      ],
      "payable": false,
      "stateMutability": "view",
      "type": "function"
    },
    {
      "constant": true,
      "inputs": [
        {
          "name": "",
          "type": "uint256"
        },
        {
          "name": "",
          "type": "uint256"
        }
      ],
      "name": "tokenIdToLayers",
      "outputs": [
        {
          "name": "",
          "type": "uint256"
        }
      ],
      "payable": false,
      "stateMutability": "view",
      "type": "function"
    },
    {
      "constant": false,
      "inputs": [],
      "name": "unpause",
      "outputs": [],
      "payable": false,
      "stateMutability": "nonpayable",
      "type": "function"
    },
    {
      "constant": true,
      "inputs": [
        {
          "name": "_owner",
          "type": "address"
        }
      ],
      "name": "tokensOf",
      "outputs": [
        {
          "name": "",
          "type": "uint256[]"
        }
      ],
      "payable": false,
      "stateMutability": "view",
      "type": "function"
    },
    {
      "constant": true,
      "inputs": [],
      "name": "paused",
      "outputs": [
        {
          "name": "",
          "type": "bool"
        }
      ],
      "payable": false,
      "stateMutability": "view",
      "type": "function"
    },
    {
      "constant": false,
      "inputs": [],
      "name": "withdrawPayments",
      "outputs": [],
      "payable": false,
      "stateMutability": "nonpayable",
      "type": "function"
    },
    {
      "constant": true,
      "inputs": [
        {
          "name": "_tokenId",
          "type": "uint256"
        }
      ],
      "name": "ownerOf",
      "outputs": [
        {
          "name": "",
          "type": "address"
        }
      ],
      "payable": false,
      "stateMutability": "view",
      "type": "function"
    },
    {
      "constant": true,
      "inputs": [
        {
          "name": "_owner",
          "type": "address"
        }
      ],
      "name": "balanceOf",
      "outputs": [
        {
          "name": "",
          "type": "uint256"
        }
      ],
      "payable": false,
      "stateMutability": "view",
      "type": "function"
    },
    {
      "constant": true,
      "inputs": [
        {
          "name": "",
          "type": "bytes32"
        }
      ],
      "name": "compositions",
      "outputs": [
        {
          "name": "",
          "type": "bool"
        }
      ],
      "payable": false,
      "stateMutability": "view",
      "type": "function"
    },
    {
      "constant": false,
      "inputs": [],
      "name": "pause",
      "outputs": [],
      "payable": false,
      "stateMutability": "nonpayable",
      "type": "function"
    },
    {
      "constant": true,
      "inputs": [],
      "name": "owner",
      "outputs": [
        {
          "name": "",
          "type": "address"
        }
      ],
      "payable": false,
      "stateMutability": "view",
      "type": "function"
    },
    {
      "constant": true,
      "inputs": [
        {
          "name": "",
          "type": "uint256"
        }
      ],
      "name": "imageHashes",
      "outputs": [
        {
          "name": "",
          "type": "uint256"
        }
      ],
      "payable": false,
      "stateMutability": "view",
      "type": "function"
    },
    {
      "constant": false,
      "inputs": [
        {
          "name": "_to",
          "type": "address"
        },
        {
          "name": "_tokenId",
          "type": "uint256"
        }
      ],
      "name": "transfer",
      "outputs": [],
      "payable": false,
      "stateMutability": "nonpayable",
      "type": "function"
    },
    {
      "constant": true,
      "inputs": [
        {
          "name": "",
          "type": "uint256"
        }
      ],
      "name": "tokenIdToCompositionPriceChangeRate",
      "outputs": [
        {
          "name": "",
          "type": "uint256"
        }
      ],
      "payable": false,
      "stateMutability": "view",
      "type": "function"
    },
    {
      "constant": false,
      "inputs": [
        {
          "name": "_tokenId",
          "type": "uint256"
        }
      ],
      "name": "takeOwnership",
      "outputs": [],
      "payable": false,
      "stateMutability": "nonpayable",
      "type": "function"
    },
    {
      "constant": true,
      "inputs": [],
      "name": "isCompositionOnlyWithBaseLayers",
      "outputs": [
        {
          "name": "",
          "type": "bool"
        }
      ],
      "payable": false,
      "stateMutability": "view",
      "type": "function"
    },
    {
      "constant": true,
      "inputs": [],
      "name": "minCompositionFee",
      "outputs": [
        {
          "name": "",
          "type": "uint256"
        }
      ],
      "payable": false,
      "stateMutability": "view",
      "type": "function"
    },
    {
      "constant": true,
      "inputs": [],
      "name": "MAX_LAYERS",
      "outputs": [
        {
          "name": "",
          "type": "uint256"
        }
      ],
      "payable": false,
      "stateMutability": "view",
      "type": "function"
    },
    {
      "constant": true,
      "inputs": [
        {
          "name": "",
          "type": "address"
        }
      ],
      "name": "payments",
      "outputs": [
        {
          "name": "",
          "type": "uint256"
        }
      ],
      "payable": false,
      "stateMutability": "view",
      "type": "function"
    },
    {
      "constant": false,
      "inputs": [
        {
          "name": "newOwner",
          "type": "address"
        }
      ],
      "name": "transferOwnership",
      "outputs": [],
      "payable": false,
      "stateMutability": "nonpayable",
      "type": "function"
    },
    {
      "anonymous": false,
      "inputs": [
        {
          "indexed": false,
          "name": "tokenId",
          "type": "uint256"
        }
      ],
      "name": "BaseTokenCreated",
      "type": "event"
    },
    {
      "anonymous": false,
      "inputs": [
        {
          "indexed": false,
          "name": "tokenId",
          "type": "uint256"
        },
        {
          "indexed": false,
          "name": "layers",
          "type": "uint256[]"
        },
        {
          "indexed": true,
          "name": "owner",
          "type": "address"
        }
      ],
      "name": "CompositionTokenCreated",
      "type": "event"
    },
    {
      "anonymous": false,
      "inputs": [
        {
          "indexed": false,
          "name": "tokenId",
          "type": "uint256"
        },
        {
          "indexed": false,
          "name": "price",
          "type": "uint256"
        },
        {
          "indexed": true,
          "name": "owner",
          "type": "address"
        }
      ],
      "name": "CompositionPriceChanged",
      "type": "event"
    },
    {
      "anonymous": false,
      "inputs": [
        {
          "indexed": false,
          "name": "tokenId",
          "type": "uint256"
        },
        {
          "indexed": false,
          "name": "amount",
          "type": "uint256"
        },
        {
          "indexed": true,
          "name": "owner",
          "type": "address"
        }
      ],
      "name": "RoyaltiesPaid",
      "type": "event"
    },
    {
      "anonymous": false,
      "inputs": [],
      "name": "Pause",
      "type": "event"
    },
    {
      "anonymous": false,
      "inputs": [],
      "name": "Unpause",
      "type": "event"
    },
    {
      "anonymous": false,
      "inputs": [
        {
          "indexed": true,
          "name": "previousOwner",
          "type": "address"
        },
        {
          "indexed": true,
          "name": "newOwner",
          "type": "address"
        }
      ],
      "name": "OwnershipTransferred",
      "type": "event"
    },
    {
      "anonymous": false,
      "inputs": [
        {
          "indexed": true,
          "name": "_from",
          "type": "address"
        },
        {
          "indexed": true,
          "name": "_to",
          "type": "address"
        },
        {
          "indexed": false,
          "name": "_tokenId",
          "type": "uint256"
        }
      ],
      "name": "Transfer",
      "type": "event"
    },
    {
      "anonymous": false,
      "inputs": [
        {
          "indexed": true,
          "name": "_owner",
          "type": "address"
        },
        {
          "indexed": true,
          "name": "_approved",
          "type": "address"
        },
        {
          "indexed": false,
          "name": "_tokenId",
          "type": "uint256"
        }
      ],
      "name": "Approval",
      "type": "event"
    },
    {
      "constant": false,
      "inputs": [
        {
          "name": "_to",
          "type": "address"
        },
        {
          "name": "_compositionPrice",
          "type": "uint256"
        },
        {
          "name": "_changeRate",
          "type": "uint256"
        },
        {
          "name": "_changeableCompPrice",
          "type": "bool"
        },
        {
          "name": "_imageHash",
          "type": "uint256"
        }
      ],
      "name": "mintTo",
      "outputs": [],
      "payable": false,
      "stateMutability": "nonpayable",
      "type": "function"
    },
    {
      "constant": false,
      "inputs": [
        {
          "name": "_tokenIds",
          "type": "uint256[]"
        },
        {
          "name": "_imageHash",
          "type": "uint256"
        }
      ],
      "name": "compose",
      "outputs": [],
      "payable": true,
      "stateMutability": "payable",
      "type": "function"
    },
    {
      "constant": true,
      "inputs": [
        {
          "name": "_tokenId",
          "type": "uint256"
        }
      ],
      "name": "getTokenLayers",
      "outputs": [
        {
          "name": "",
          "type": "uint256[]"
        }
      ],
      "payable": false,
      "stateMutability": "view",
      "type": "function"
    },
    {
      "constant": true,
      "inputs": [
        {
          "name": "_tokenIds",
          "type": "uint256[]"
        },
        {
          "name": "_imageHash",
          "type": "uint256"
        }
      ],
      "name": "isValidComposition",
      "outputs": [
        {
          "name": "",
          "type": "bool"
        }
      ],
      "payable": false,
      "stateMutability": "view",
      "type": "function"
    },
    {
      "constant": true,
      "inputs": [
        {
          "name": "_tokenId",
          "type": "uint256"
        }
      ],
      "name": "getCompositionPrice",
      "outputs": [
        {
          "name": "",
          "type": "uint256"
        }
      ],
      "payable": false,
      "stateMutability": "view",
      "type": "function"
    },
    {
      "constant": true,
      "inputs": [
        {
          "name": "_tokenIds",
          "type": "uint256[]"
        }
      ],
      "name": "getTotalCompositionPrice",
      "outputs": [
        {
          "name": "",
          "type": "uint256"
        }
      ],
      "payable": false,
      "stateMutability": "view",
      "type": "function"
    },
    {
      "constant": false,
      "inputs": [
        {
          "name": "_tokenId",
          "type": "uint256"
        },
        {
          "name": "_price",
          "type": "uint256"
        }
      ],
      "name": "setCompositionPrice",
      "outputs": [],
      "payable": false,
      "stateMutability": "nonpayable",
      "type": "function"
    },
    {
      "constant": false,
      "inputs": [
        {
          "name": "_to",
          "type": "address"
        }
      ],
      "name": "payout",
      "outputs": [],
      "payable": false,
      "stateMutability": "nonpayable",
      "type": "function"
    },
    {
      "constant": false,
      "inputs": [
        {
          "name": "_price",
          "type": "uint256"
        }
      ],
      "name": "setMinCompositionFee",
      "outputs": [],
      "payable": false,
      "stateMutability": "nonpayable",
      "type": "function"
    }
  ],
  "bytecode": "0x60806040526000600860006101000a81548160ff02191690831515021790555033600560006101000a81548173ffffffffffffffffffffffffffffffffffffffff021916908373ffffffffffffffffffffffffffffffffffffffff160217905550612f558061006f6000396000f3006080604052600436106101ab576000357c0100000000000000000000000000000000000000000000000000000000900463ffffffff1680625b4487146101b057806303083883146101db57806304ff392e1461023e578063095ea7b3146102835780630b7e9c44146102d057806318160ddd146103135780631983111d1461033e5780631f89e911146103b85780632a6dd48f146103f957806338e50d3c146104665780633f27afa7146104a75780633f4ba83a146104f25780635a3f2672146105095780635c975abb146105a15780636103d70b146105d05780636352211e146105e757806370a082311461065457806370e2b625146106ab5780638456cb59146106f45780638da5cb5b1461070b578063a8d4ab6c14610762578063a9059cbb146107a3578063a919e425146107f0578063aae07cd014610831578063b2e6ceeb146108b3578063b9e3a8dd146108e0578063befc76421461090f578063c73ec2eb1461093c578063c829b0e314610967578063d2769df114610992578063d5e0d8fc14610a1a578063e2982c2114610a51578063ef95957714610aa8578063f2fde38b14610b15575b600080fd5b3480156101bc57600080fd5b506101c5610b58565b6040518082815260200191505060405180910390f35b61023c6004803603810190808035906020019082018035906020019080806020026020016040519081016040528093929190818152602001838360200280828437820191505050505050919291929080359060200190929190505050610b5e565b005b34801561024a57600080fd5b50610269600480360381019080803590602001909291905050506111af565b604051808215151515815260200191505060405180910390f35b34801561028f57600080fd5b506102ce600480360381019080803573ffffffffffffffffffffffffffffffffffffffff169060200190929190803590602001909291905050506111cf565b005b3480156102dc57600080fd5b50610311600480360381019080803573ffffffffffffffffffffffffffffffffffffffff169060200190929190505050611362565b005b34801561031f57600080fd5b50610328611427565b6040518082815260200191505060405180910390f35b34801561034a57600080fd5b506103a260048036038101908080359060200190820180359060200190808060200260200160405190810160405280939291908181526020018383602002808284378201915050505050509192919290505050611430565b6040518082815260200191505060405180910390f35b3480156103c457600080fd5b506103e3600480360381019080803590602001909291905050506114d5565b6040518082815260200191505060405180910390f35b34801561040557600080fd5b50610424600480360381019080803590602001909291905050506114f2565b604051808273ffffffffffffffffffffffffffffffffffffffff1673ffffffffffffffffffffffffffffffffffffffff16815260200191505060405180910390f35b34801561047257600080fd5b506104916004803603810190808035906020019092919050505061152f565b6040518082815260200191505060405180910390f35b3480156104b357600080fd5b506104dc6004803603810190808035906020019092919080359060200190929190505050611547565b6040518082815260200191505060405180910390f35b3480156104fe57600080fd5b50610507611577565b005b34801561051557600080fd5b5061054a600480360381019080803573ffffffffffffffffffffffffffffffffffffffff169060200190929190505050611637565b6040518080602001828103825283818151815260200191508051906020019060200280838360005b8381101561058d578082015181840152602081019050610572565b505050509050019250505060405180910390f35b3480156105ad57600080fd5b506105b66116ce565b604051808215151515815260200191505060405180910390f35b3480156105dc57600080fd5b506105e56116e1565b005b3480156105f357600080fd5b5061061260048036038101908080359060200190929190505050611800565b604051808273ffffffffffffffffffffffffffffffffffffffff1673ffffffffffffffffffffffffffffffffffffffff16815260200191505060405180910390f35b34801561066057600080fd5b50610695600480360381019080803573ffffffffffffffffffffffffffffffffffffffff16906020019092919050505061187e565b6040518082815260200191505060405180910390f35b3480156106b757600080fd5b506106da60048036038101908080356000191690602001909291905050506118ca565b604051808215151515815260200191505060405180910390f35b34801561070057600080fd5b506107096118ea565b005b34801561071757600080fd5b506107206119ab565b604051808273ffffffffffffffffffffffffffffffffffffffff1673ffffffffffffffffffffffffffffffffffffffff16815260200191505060405180910390f35b34801561076e57600080fd5b5061078d600480360381019080803590602001909291905050506119d1565b6040518082815260200191505060405180910390f35b3480156107af57600080fd5b506107ee600480360381019080803573ffffffffffffffffffffffffffffffffffffffff169060200190929190803590602001909291905050506119e9565b005b3480156107fc57600080fd5b5061081b60048036038101908080359060200190929190505050611a3c565b6040518082815260200191505060405180910390f35b34801561083d57600080fd5b5061085c60048036038101908080359060200190929190505050611a54565b6040518080602001828103825283818151815260200191508051906020019060200280838360005b8381101561089f578082015181840152602081019050610884565b505050509050019250505060405180910390f35b3480156108bf57600080fd5b506108de60048036038101908080359060200190929190505050611abf565b005b3480156108ec57600080fd5b506108f5611aea565b604051808215151515815260200191505060405180910390f35b34801561091b57600080fd5b5061093a60048036038101908080359060200190929190505050611afd565b005b34801561094857600080fd5b50610951611b63565b6040518082815260200191505060405180910390f35b34801561097357600080fd5b5061097c611b69565b6040518082815260200191505060405180910390f35b34801561099e57600080fd5b50610a006004803603810190808035906020019082018035906020019080806020026020016040519081016040528093929190818152602001838360200280828437820191505050505050919291929080359060200190929190505050611b6e565b604051808215151515815260200191505060405180910390f35b348015610a2657600080fd5b50610a4f6004803603810190808035906020019092919080359060200190929190505050611ba9565b005b348015610a5d57600080fd5b50610a92600480360381019080803573ffffffffffffffffffffffffffffffffffffffff169060200190929190505050611c2e565b6040518082815260200191505060405180910390f35b348015610ab457600080fd5b50610b13600480360381019080803573ffffffffffffffffffffffffffffffffffffffff169060200190929190803590602001909291908035906020019092919080351515906020019092919080359060200190929190505050611c46565b005b348015610b2157600080fd5b50610b56600480360381019080803573ffffffffffffffffffffffffffffffffffffffff169060200190929190505050611e55565b005b60075481565b6000606060008060006060600080600080600860009054906101000a900460ff16151515610b8b57600080fd5b60018c51111515610b9b57600080fd5b610ba48c611430565b9950600073ffffffffffffffffffffffffffffffffffffffff163373ffffffffffffffffffffffffffffffffffffffff1614158015610be35750893410155b1515610bee57600080fd5b60648c5111151515610bff57600080fd5b6064604051908082528060200260200182016040528015610c2f5781602001602082028038833980820191505090505b50985060009750600096505b8b51871015610f24578b87815181101515610c5257fe5b906020019060200201519550610c6786611fad565b1515610c7257600080fd5b600d6000878152602001908152602001600020805480602002602001604051908101604052809291908181526020018280548015610ccf57602002820191906000526020600020905b815481526020019060010190808311610cbb575b50505050509450601060009054906101000a900460ff1615610cfc5760018551141515610cfb57600080fd5b5b60648551101515610d0c57600080fd5b600093505b8451841015610ded57606488101515610d2957600080fd5b600092505b8851831015610da6578484815181101515610d4557fe5b906020019060200201518984815181101515610d5d57fe5b9060200190602002015114151515610d7457600080fd5b60008984815181101515610d8457fe5b906020019060200201511415610d9957610da6565b8280600101935050610d2e565b8484815181101515610db457fe5b906020019060200201518989815181101515610dcc57fe5b90602001906020020181815250506001880197508380600101945050610d11565b600073ffffffffffffffffffffffffffffffffffffffff16610e0e87611800565b73ffffffffffffffffffffffffffffffffffffffff1614151515610e3157600080fd5b610e56610e3d87611800565b600a600089815260200190815260200160002054611fd0565b610e5f86611800565b73ffffffffffffffffffffffffffffffffffffffff167faa044fd0677f595122a532475e14efe539fe126d9ec7d9b7e66d7fcbec3636be87600a60008a815260200190815260200160002054604051808381526020018281526020019250505060405180910390a2610f00600b600088815260200190815260200160002054600a60008981526020019081526020016000205461208490919063ffffffff16565b600a6000888152602001908152602001600020819055508680600101975050610c3b565b610f2c6120a2565b9150610f3889896120c4565b600d60008481526020019081526020016000209080519060200190610f5e929190612e3e565b50610fca600d6000848152602001908152602001600020805480602002602001604051908101604052809291908181526020018280548015610fbf57602002820191906000526020600020905b815481526020019060010190808311610fab575b50505050508c612154565b1515610fd557600080fd5b6001600e6000600d600086815260200190815260200160002060405180828054801561102057602002820191906000526020600020905b81548152602001906001019080831161100c575b505091505060405180910390206000191660001916815260200190815260200160002060006101000a81548160ff02191690831515021790555081600f60008d81526020019081526020016000208190555061107c33836121ee565b893411156110d85761108e348b612288565b90503373ffffffffffffffffffffffffffffffffffffffff166108fc829081150290604051600060405180830381858888f193505050501580156110d6573d6000803e3d6000fd5b505b601060009054906101000a900460ff1615156110fb576110fa826009546122a1565b5b3373ffffffffffffffffffffffffffffffffffffffff167f8258990f4da6775c9379703a14a2d112f3131e6b3a3840d1f6c25ccfe1051b9d83600d60008681526020019081526020016000206040518083815260200180602001828103825283818154815260200191508054801561119257602002820191906000526020600020905b81548152602001906001019080831161117e575b5050935050505060405180910390a2505050505050505050505050565b600c6020528060005260406000206000915054906101000a900460ff1681565b6000813373ffffffffffffffffffffffffffffffffffffffff166111f282611800565b73ffffffffffffffffffffffffffffffffffffffff1614151561121457600080fd5b61121d83611800565b91508173ffffffffffffffffffffffffffffffffffffffff168473ffffffffffffffffffffffffffffffffffffffff161415151561125a57600080fd5b6000611265846114f2565b73ffffffffffffffffffffffffffffffffffffffff1614158061129f575060008473ffffffffffffffffffffffffffffffffffffffff1614155b1561135c57836002600085815260200190815260200160002060006101000a81548173ffffffffffffffffffffffffffffffffffffffff021916908373ffffffffffffffffffffffffffffffffffffffff1602179055508373ffffffffffffffffffffffffffffffffffffffff168273ffffffffffffffffffffffffffffffffffffffff167f8c5be1e5ebec7d5bd14f71427d1e84f3dd0314c0f7b2291e5b200ac8c7c3b925856040518082815260200191505060405180910390a35b50505050565b600560009054906101000a900473ffffffffffffffffffffffffffffffffffffffff1673ffffffffffffffffffffffffffffffffffffffff163373ffffffffffffffffffffffffffffffffffffffff161415156113be57600080fd5b60006007819055508073ffffffffffffffffffffffffffffffffffffffff166108fc3073ffffffffffffffffffffffffffffffffffffffff16319081150290604051600060405180830381858888f19350505050158015611423573d6000803e3d6000fd5b5050565b60008054905090565b6000806000809150600090505b83518110156114b457611466848281518110151561145757fe5b90602001906020020151611fad565b151561147157600080fd5b6114a582600a6000878581518110151561148757fe5b90602001906020020151815260200190815260200160002054612084565b9150808060010191505061143d565b6114c96114c2836069612324565b606461235f565b91508192505050919050565b6000600a6000838152602001908152602001600020549050919050565b60006002600083815260200190815260200160002060009054906101000a900473ffffffffffffffffffffffffffffffffffffffff169050919050565b600a6020528060005260406000206000915090505481565b600d6020528160005260406000208181548110151561156257fe5b90600052602060002001600091509150505481565b600560009054906101000a900473ffffffffffffffffffffffffffffffffffffffff1673ffffffffffffffffffffffffffffffffffffffff163373ffffffffffffffffffffffffffffffffffffffff161415156115d357600080fd5b600860009054906101000a900460ff1615156115ee57600080fd5b6000600860006101000a81548160ff0219169083151502179055507f7805862f689e2f13df9f062ff482ad3ad112aca9e0847911ed832e158c525b3360405160405180910390a1565b6060600360008373ffffffffffffffffffffffffffffffffffffffff1673ffffffffffffffffffffffffffffffffffffffff1681526020019081526020016000208054806020026020016040519081016040528092919081815260200182805480156116c257602002820191906000526020600020905b8154815260200190600101908083116116ae575b50505050509050919050565b600860009054906101000a900460ff1681565b600080339150600660008373ffffffffffffffffffffffffffffffffffffffff1673ffffffffffffffffffffffffffffffffffffffff1681526020019081526020016000205490506000811415151561173957600080fd5b803073ffffffffffffffffffffffffffffffffffffffff16311015151561175f57600080fd5b6117748160075461228890919063ffffffff16565b6007819055506000600660008473ffffffffffffffffffffffffffffffffffffffff1673ffffffffffffffffffffffffffffffffffffffff168152602001908152602001600020819055508173ffffffffffffffffffffffffffffffffffffffff166108fc829081150290604051600060405180830381858888f1935050505015156117fc57fe5b5050565b6000806001600084815260200190815260200160002060009054906101000a900473ffffffffffffffffffffffffffffffffffffffff169050600073ffffffffffffffffffffffffffffffffffffffff168173ffffffffffffffffffffffffffffffffffffffff161415151561187557600080fd5b80915050919050565b6000600360008373ffffffffffffffffffffffffffffffffffffffff1673ffffffffffffffffffffffffffffffffffffffff168152602001908152602001600020805490509050919050565b600e6020528060005260406000206000915054906101000a900460ff1681565b600560009054906101000a900473ffffffffffffffffffffffffffffffffffffffff1673ffffffffffffffffffffffffffffffffffffffff163373ffffffffffffffffffffffffffffffffffffffff1614151561194657600080fd5b600860009054906101000a900460ff1615151561196257600080fd5b6001600860006101000a81548160ff0219169083151502179055507f6985a02210a168e66602d3235cb6db0e70f92b3ba4d376a33c0f3d9434bff62560405160405180910390a1565b600560009054906101000a900473ffffffffffffffffffffffffffffffffffffffff1681565b600f6020528060005260406000206000915090505481565b803373ffffffffffffffffffffffffffffffffffffffff16611a0a82611800565b73ffffffffffffffffffffffffffffffffffffffff16141515611a2c57600080fd5b611a3733848461237a565b505050565b600b6020528060005260406000206000915090505481565b6060600d6000838152602001908152602001600020805480602002602001604051908101604052809291908181526020018280548015611ab357602002820191906000526020600020905b815481526020019060010190808311611a9f575b50505050509050919050565b611ac933826124c3565b1515611ad457600080fd5b611ae7611ae082611800565b338361237a565b50565b601060009054906101000a900460ff1681565b600560009054906101000a900473ffffffffffffffffffffffffffffffffffffffff1673ffffffffffffffffffffffffffffffffffffffff163373ffffffffffffffffffffffffffffffffffffffff16141515611b5957600080fd5b8060098190555050565b60095481565b606481565b6000601060009054906101000a900460ff1615611b9657611b8f8383612504565b9050611ba3565b611ba083836126f8565b90505b92915050565b813373ffffffffffffffffffffffffffffffffffffffff16611bca82611800565b73ffffffffffffffffffffffffffffffffffffffff16141515611bec57600080fd5b60011515600c600085815260200190815260200160002060009054906101000a900460ff161515141515611c1f57600080fd5b611c2983836122a1565b505050565b60066020528060005260406000206000915090505481565b6000600560009054906101000a900473ffffffffffffffffffffffffffffffffffffffff1673ffffffffffffffffffffffffffffffffffffffff163373ffffffffffffffffffffffffffffffffffffffff16141515611ca457600080fd5b611cac6120a2565b9050611cb886826121ee565b60206040519081016040528082815250600d6000838152602001908152602001600020906001611ce9929190612e8b565b50611d55600d6000838152602001908152602001600020805480602002602001604051908101604052809291908181526020018280548015611d4a57602002820191906000526020600020905b815481526020019060010190808311611d36575b505050505083612154565b1515611d6057600080fd5b6001600e6000602060405190810160405280858152506040518082600160200280838360005b83811015611da1578082015181840152602081019050611d86565b5050505090500191505060405180910390206000191660001916815260200190815260200160002060006101000a81548160ff02191690831515021790555080600f6000848152602001908152602001600020819055507f3f5bdceccefc96a1f5b67e0c030e1f5f27d4f940582f4114ee08d3599912e216816040518082815260200191505060405180910390a1611e3981866122a1565b611e438185612917565b611e4d8184612933565b505050505050565b600560009054906101000a900473ffffffffffffffffffffffffffffffffffffffff1673ffffffffffffffffffffffffffffffffffffffff163373ffffffffffffffffffffffffffffffffffffffff16141515611eb157600080fd5b600073ffffffffffffffffffffffffffffffffffffffff168173ffffffffffffffffffffffffffffffffffffffff1614151515611eed57600080fd5b8073ffffffffffffffffffffffffffffffffffffffff16600560009054906101000a900473ffffffffffffffffffffffffffffffffffffffff1673ffffffffffffffffffffffffffffffffffffffff167f8be0079c531659141344cd1fd0a4f28419497f9722a3daafe3b4186f6b6457e060405160405180910390a380600560006101000a81548173ffffffffffffffffffffffffffffffffffffffff021916908373ffffffffffffffffffffffffffffffffffffffff16021790555050565b600080600d60008481526020019081526020016000208054905014159050919050565b61202281600660008573ffffffffffffffffffffffffffffffffffffffff1673ffffffffffffffffffffffffffffffffffffffff1681526020019081526020016000205461208490919063ffffffff16565b600660008473ffffffffffffffffffffffffffffffffffffffff1673ffffffffffffffffffffffffffffffffffffffff1681526020019081526020016000208190555061207a8160075461208490919063ffffffff16565b6007819055505050565b600080828401905083811015151561209857fe5b8091505092915050565b60006120bf60016120b1611427565b61208490919063ffffffff16565b905090565b6060806000836040519080825280602002602001820160405280156120f85781602001602082028038833980820191505090505b509150600090505b8381101561214957848181518110151561211657fe5b90602001906020020151828281518110151561212e57fe5b90602001906020020181815250508080600101915050612100565b819250505092915050565b6000801515600e60008560405180828051906020019060200280838360005b8381101561218e578082015181840152602081019050612173565b5050505090500191505060405180910390206000191660001916815260200190815260200160002060009054906101000a900460ff1615151480156121e657506000600f600084815260200190815260200160002054145b905092915050565b600073ffffffffffffffffffffffffffffffffffffffff168273ffffffffffffffffffffffffffffffffffffffff161415151561222a57600080fd5b6122348282612962565b8173ffffffffffffffffffffffffffffffffffffffff1660007fddf252ad1be2c89b69c2b068fc378daa952ba7f163c4a11628f55a4df523b3ef836040518082815260200191505060405180910390a35050565b600082821115151561229657fe5b818303905092915050565b60095481101515156122b257600080fd5b80600a6000848152602001908152602001600020819055503373ffffffffffffffffffffffffffffffffffffffff167f372883ed096f3aca24c33c36571b41f60a645cb114b5590f319e2e1c2606db6e8383604051808381526020018281526020019250505060405180910390a25050565b60008060008414156123395760009150612358565b828402905082848281151561234a57fe5b0414151561235457fe5b8091505b5092915050565b600080828481151561236d57fe5b0490508091505092915050565b600073ffffffffffffffffffffffffffffffffffffffff168273ffffffffffffffffffffffffffffffffffffffff16141515156123b657600080fd5b6123bf81611800565b73ffffffffffffffffffffffffffffffffffffffff168273ffffffffffffffffffffffffffffffffffffffff16141515156123f957600080fd5b8273ffffffffffffffffffffffffffffffffffffffff1661241982611800565b73ffffffffffffffffffffffffffffffffffffffff1614151561243b57600080fd5b6124458382612ad0565b61244f8382612bb9565b6124598282612962565b8173ffffffffffffffffffffffffffffffffffffffff168373ffffffffffffffffffffffffffffffffffffffff167fddf252ad1be2c89b69c2b068fc378daa952ba7f163c4a11628f55a4df523b3ef836040518082815260200191505060405180910390a3505050565b60008273ffffffffffffffffffffffffffffffffffffffff166124e5836114f2565b73ffffffffffffffffffffffffffffffffffffffff1614905092915050565b60006060600080606486511115151561251c57600080fd5b855160405190808252806020026020018201604052801561254c5781602001602082028038833980820191505090505b509250600091505b85518210156126e25761257d868381518110151561256e57fe5b90602001906020020151611fad565b151561258c57600093506126ef565b6001600d600088858151811015156125a057fe5b906020019060200201518152602001908152602001600020805490501415156125cc57600093506126ef565b600090505b82518110156126d557600d600087848151811015156125ec57fe5b906020019060200201518152602001908152602001600020600081548110151561261257fe5b9060005260206000200154838281518110151561262b57fe5b90602001906020020151141561264457600093506126ef565b6000838281518110151561265457fe5b9060200190602002015114156126c857600d6000878481518110151561267657fe5b906020019060200201518152602001908152602001600020600081548110151561269c57fe5b906000526020600020015483828151811015156126b557fe5b90602001906020020181815250506126d5565b80806001019150506125d1565b8180600101925050612554565b6126ec8386612154565b93505b50505092915050565b600060606000806000606060008060646040519080825280602002602001820160405280156127365781602001602082028038833980820191505090505b5096506000955060648a511115612750576000975061290a565b600094505b89518510156128f457898581518110151561276c57fe5b90602001906020020151935061278184611fad565b1515612790576000975061290a565b600d60008581526020019081526020016000208054806020026020016040519081016040528092919081815260200182805480156127ed57602002820191906000526020600020905b8154815260200190600101908083116127d9575b505050505092506064835110151561280457600080fd5b600091505b82518210156128e75760648610151561282157600080fd5b600090505b86518110156128a057828281518110151561283d57fe5b90602001906020020151878281518110151561285557fe5b90602001906020020151141561286e576000975061290a565b6000878281518110151561287e57fe5b906020019060200201511415612893576128a0565b8080600101915050612826565b82828151811015156128ae57fe5b9060200190602002015187878151811015156128c657fe5b90602001906020020181815250506001860195508180600101925050612809565b8480600101955050612755565b61290761290188886120c4565b8a612154565b97505b5050505050505092915050565b80600b6000848152602001908152602001600020819055505050565b80600c600084815260200190815260200160002060006101000a81548160ff0219169083151502179055505050565b60008073ffffffffffffffffffffffffffffffffffffffff166001600084815260200190815260200160002060009054906101000a900473ffffffffffffffffffffffffffffffffffffffff1673ffffffffffffffffffffffffffffffffffffffff161415156129d157600080fd5b826001600084815260200190815260200160002060006101000a81548173ffffffffffffffffffffffffffffffffffffffff021916908373ffffffffffffffffffffffffffffffffffffffff160217905550612a2c8361187e565b9050600360008473ffffffffffffffffffffffffffffffffffffffff1673ffffffffffffffffffffffffffffffffffffffff168152602001908152602001600020829080600181540180825580915050906001820390600052602060002001600090919290919091505550806004600084815260200190815260200160002081905550612ac5600160005461208490919063ffffffff16565b600081905550505050565b8173ffffffffffffffffffffffffffffffffffffffff16612af082611800565b73ffffffffffffffffffffffffffffffffffffffff16141515612b1257600080fd5b60006002600083815260200190815260200160002060006101000a81548173ffffffffffffffffffffffffffffffffffffffff021916908373ffffffffffffffffffffffffffffffffffffffff16021790555060008273ffffffffffffffffffffffffffffffffffffffff167f8c5be1e5ebec7d5bd14f71427d1e84f3dd0314c0f7b2291e5b200ac8c7c3b925836040518082815260200191505060405180910390a35050565b60008060008473ffffffffffffffffffffffffffffffffffffffff16612bde85611800565b73ffffffffffffffffffffffffffffffffffffffff16141515612c0057600080fd5b60046000858152602001908152602001600020549250612c326001612c248761187e565b61228890919063ffffffff16565b9150600360008673ffffffffffffffffffffffffffffffffffffffff1673ffffffffffffffffffffffffffffffffffffffff16815260200190815260200160002082815481101515612c8057fe5b9060005260206000200154905060006001600086815260200190815260200160002060006101000a81548173ffffffffffffffffffffffffffffffffffffffff021916908373ffffffffffffffffffffffffffffffffffffffff16021790555080600360008773ffffffffffffffffffffffffffffffffffffffff1673ffffffffffffffffffffffffffffffffffffffff16815260200190815260200160002084815481101515612d2d57fe5b90600052602060002001819055506000600360008773ffffffffffffffffffffffffffffffffffffffff1673ffffffffffffffffffffffffffffffffffffffff16815260200190815260200160002083815481101515612d8957fe5b9060005260206000200181905550600360008673ffffffffffffffffffffffffffffffffffffffff1673ffffffffffffffffffffffffffffffffffffffff168152602001908152602001600020805480919060019003612de99190612ed8565b5060006004600086815260200190815260200160002081905550826004600083815260200190815260200160002081905550612e31600160005461228890919063ffffffff16565b6000819055505050505050565b828054828255906000526020600020908101928215612e7a579160200282015b82811115612e79578251825591602001919060010190612e5e565b5b509050612e879190612f04565b5090565b828054828255906000526020600020908101928215612ec7579160200282015b82811115612ec6578251825591602001919060010190612eab565b5b509050612ed49190612f04565b5090565b815481835581811115612eff57818360005260206000209182019101612efe9190612f04565b5b505050565b612f2691905b80821115612f22576000816000905550600101612f0a565b5090565b905600a165627a7a7230582082d16790da1a35a679bed7a95d418c439c96d0ced34be7e17003a62f0c2e7d810029",
  "source": "pragma solidity ^0.4.21;\n\nimport \"zeppelin-solidity/contracts/token/ERC721/ERC721Token.sol\";\nimport \"zeppelin-solidity/contracts/math/SafeMath.sol\";\nimport \"zeppelin-solidity/contracts/ownership/Ownable.sol\";\nimport \"zeppelin-solidity/contracts/payment/PullPayment.sol\";\nimport \"zeppelin-solidity/contracts/lifecycle/Pausable.sol\";\n\n\n/**\n * @title Composable\n * Composable - a contract to mint compositions\n */\n\ncontract Composable is ERC721Token, Ownable, PullPayment, Pausable {\n    // Max number of layers for a composition token\n    uint public constant MAX_LAYERS = 100;\n    \n    // The minimum composition fee for an ethmoji\n    uint256 public minCompositionFee;\n\n    // Mapping from token ID to composition price\n    mapping (uint256 => uint256) public tokenIdToCompositionPrice;\n\n    // Mapping from token ID to composition price increase \n    mapping (uint256 => uint256) public tokenIdToCompositionPriceChangeRate;\n\n    // Mapping from token ID to owner ability of changing composition price increase \n    mapping (uint256 => bool) public tokenIdToCompPricePermission;\n    \n    // Mapping from token ID to layers representing it\n    mapping (uint256 => uint256[]) public tokenIdToLayers;\n\n    // Hash of all layers to track uniqueness of ethmojis\n    mapping (bytes32 => bool) public compositions;\n\n    // Image hashes to track uniquenes of ethmoji images.\n    mapping (uint256 => uint256) public imageHashes;\n\n    // Event for emitting new base token created \n    event BaseTokenCreated(uint256 tokenId);\n    \n    // Event for emitting new composition token created \n    event CompositionTokenCreated(uint256 tokenId, uint256[] layers, address indexed owner);\n    \n    // Event for emitting composition price changing for a token\n    event CompositionPriceChanged(uint256 tokenId, uint256 price, address indexed owner);\n\n    // Event for emitting composition price changing for a token\n    event RoyaltiesPaid(uint256 tokenId, uint256 amount, address indexed owner);\n\n    // Whether or not this contract accepts making compositions with other compositions\n    bool public isCompositionOnlyWithBaseLayers;\n    \n// ----- EXPOSED METHODS --------------------------------------------------------------------------\n\n    /**\n    * @dev Mints a base token to an address with a given composition price\n    * @param _to address of the future owner of the token\n    * @param _compositionPrice uint256 composition price for the new token\n    * @param _changeRate uint256 the rate at which comp price increases after every use\n    * @param _changeableCompPrice bool whether or not the comp price can be changed\n    * @param _imageHash uint256 hash of the resulting image\n    */\n    function mintTo(address _to, uint256 _compositionPrice, uint256 _changeRate,  bool _changeableCompPrice, uint256 _imageHash) public onlyOwner {\n        uint256 newTokenIndex = _getNextTokenId();\n        _mint(_to, newTokenIndex);\n        tokenIdToLayers[newTokenIndex] = [newTokenIndex];\n        require(_isUnique(tokenIdToLayers[newTokenIndex], _imageHash));\n        compositions[keccak256([newTokenIndex])] = true;\n        imageHashes[_imageHash] = newTokenIndex;      \n        emit BaseTokenCreated(newTokenIndex);\n        _setCompositionPrice(newTokenIndex, _compositionPrice);\n        _setCompositionPriceChangeRate(newTokenIndex, _changeRate);\n        _setCompositionPriceChangePermission(newTokenIndex, _changeableCompPrice);\n    }\n\n    /**\n    * @dev Mints a composition emoji\n    * @param _tokenIds uint256[] the array of layers that will make up the composition\n    */\n    function compose(uint256[] _tokenIds,  uint256 _imageHash) public payable whenNotPaused {\n        require(_tokenIds.length > 1);\n        uint256 price = getTotalCompositionPrice(_tokenIds);\n        require(msg.sender != address(0) && msg.value >= price);\n        require(_tokenIds.length <= MAX_LAYERS);\n\n        uint256[] memory layers = new uint256[](MAX_LAYERS);\n        uint actualSize = 0; \n\n        for (uint i = 0; i < _tokenIds.length; i++) { \n            uint256 compositionLayerId = _tokenIds[i];\n            require(_tokenLayersExist(compositionLayerId));\n            uint256[] memory inheritedLayers = tokenIdToLayers[compositionLayerId];\n            if (isCompositionOnlyWithBaseLayers) { \n                require(inheritedLayers.length == 1);\n            }\n            require(inheritedLayers.length < MAX_LAYERS);\n            for (uint j = 0; j < inheritedLayers.length; j++) { \n                require(actualSize < MAX_LAYERS);\n                for (uint k = 0; k < layers.length; k++) { \n                    require(layers[k] != inheritedLayers[j]);\n                    if (layers[k] == 0) { \n                        break;\n                    }\n                }\n                layers[actualSize] = inheritedLayers[j];\n                actualSize += 1;\n            }\n            require(ownerOf(compositionLayerId) != address(0));\n            asyncSend(ownerOf(compositionLayerId), tokenIdToCompositionPrice[compositionLayerId]);\n            emit RoyaltiesPaid(compositionLayerId, tokenIdToCompositionPrice[compositionLayerId], ownerOf(compositionLayerId));\n            tokenIdToCompositionPrice[compositionLayerId] = tokenIdToCompositionPrice[compositionLayerId].add(tokenIdToCompositionPriceChangeRate[compositionLayerId]);\n        }\n    \n        uint256 newTokenIndex = _getNextTokenId();\n        \n        tokenIdToLayers[newTokenIndex] = _trim(layers, actualSize);\n        require(_isUnique(tokenIdToLayers[newTokenIndex], _imageHash));\n        compositions[keccak256(tokenIdToLayers[newTokenIndex])] = true;\n        imageHashes[_imageHash] = newTokenIndex;\n    \n        _mint(msg.sender, newTokenIndex);\n\n        if (msg.value > price) {\n            uint256 purchaseExcess = SafeMath.sub(msg.value, price);\n            msg.sender.transfer(purchaseExcess);          \n        }\n\n        if (!isCompositionOnlyWithBaseLayers) { \n            _setCompositionPrice(newTokenIndex, minCompositionFee);\n        }\n   \n        emit CompositionTokenCreated(newTokenIndex, tokenIdToLayers[newTokenIndex], msg.sender);\n    }\n\n    /**\n    * @dev allows an address to withdraw its balance in the contract\n    * @param _tokenId uint256 the token ID\n    * @return uint256[] list of layers for a token\n    */\n    function getTokenLayers(uint256 _tokenId) public view returns(uint256[]) {\n        return tokenIdToLayers[_tokenId];\n    }\n\n    /**\n    * @dev given an array of ids, returns whether or not this composition is valid and unique\n    * does not assume the layers array is flattened \n    * @param _tokenIds uint256[] an array of token IDs\n    * @return bool whether or not the composition is unique\n    */\n    function isValidComposition(uint256[] _tokenIds, uint256 _imageHash) public view returns (bool) { \n        if (isCompositionOnlyWithBaseLayers) { \n            return _isValidBaseLayersOnly(_tokenIds, _imageHash);\n        } else { \n            return _isValidWithCompositions(_tokenIds, _imageHash);\n        }\n    }\n\n    /**\n    * @dev returns composition price of a given token ID\n    * @param _tokenId uint256 token ID\n    * @return uint256 composition price\n    */\n    function getCompositionPrice(uint256 _tokenId) public view returns(uint256) { \n        return tokenIdToCompositionPrice[_tokenId];\n    }\n\n    /**\n    * @dev get total price for minting a composition given the array of desired layers\n    * @param _tokenIds uint256[] an array of token IDs\n    * @return uint256 price for minting a composition with the desired layers\n    */\n    function getTotalCompositionPrice(uint256[] _tokenIds) public view returns(uint256) {\n        uint256 totalCompositionPrice = 0;\n        for (uint i = 0; i < _tokenIds.length; i++) {\n            require(_tokenLayersExist(_tokenIds[i]));\n            totalCompositionPrice = SafeMath.add(totalCompositionPrice, tokenIdToCompositionPrice[_tokenIds[i]]);\n        }\n\n        totalCompositionPrice = SafeMath.div(SafeMath.mul(totalCompositionPrice, 105), 100);\n\n        return totalCompositionPrice;\n    }\n\n    /**\n    * @dev sets the composition price for a token ID. \n    * Cannot be lower than the current composition fee\n    * @param _tokenId uint256 the token ID\n    * @param _price uint256 the new composition price\n    */\n    function setCompositionPrice(uint256 _tokenId, uint256 _price) public onlyOwnerOf(_tokenId) {\n        require(tokenIdToCompPricePermission[_tokenId] == true);\n        _setCompositionPrice(_tokenId, _price);\n    }\n\n// ----- PRIVATE FUNCTIONS ------------------------------------------------------------------------\n\n    /**\n    * @dev given an array of ids, returns whether or not this composition is valid and unique\n    * for when only base layers are allowed\n    * does not assume the layers array is flattened \n    * @param _tokenIds uint256[] an array of token IDs\n    * @return bool whether or not the composition is unique\n    */\n    function _isValidBaseLayersOnly(uint256[] _tokenIds, uint256 _imageHash) private view returns (bool) { \n        require(_tokenIds.length <= MAX_LAYERS);\n        uint256[] memory layers = new uint256[](_tokenIds.length);\n\n        for (uint i = 0; i < _tokenIds.length; i++) { \n            if (!_tokenLayersExist(_tokenIds[i])) {\n                return false;\n            }\n\n            if (tokenIdToLayers[_tokenIds[i]].length != 1) {\n                return false;\n            }\n\n            for (uint k = 0; k < layers.length; k++) { \n                if (layers[k] == tokenIdToLayers[_tokenIds[i]][0]) {\n                    return false;\n                }\n                if (layers[k] == 0) { \n                    layers[k] = tokenIdToLayers[_tokenIds[i]][0];\n                    break;\n                }\n            }\n        }\n    \n        return _isUnique(layers, _imageHash);\n    }\n\n    /**\n    * @dev given an array of ids, returns whether or not this composition is valid and unique\n    * when compositions are allowed\n    * does not assume the layers array is flattened \n    * @param _tokenIds uint256[] an array of token IDs\n    * @return bool whether or not the composition is unique\n    */\n    function _isValidWithCompositions(uint256[] _tokenIds, uint256 _imageHash) private view returns (bool) { \n        uint256[] memory layers = new uint256[](MAX_LAYERS);\n        uint actualSize = 0; \n        if (_tokenIds.length > MAX_LAYERS) { \n            return false;\n        }\n\n        for (uint i = 0; i < _tokenIds.length; i++) { \n            uint256 compositionLayerId = _tokenIds[i];\n            if (!_tokenLayersExist(compositionLayerId)) { \n                return false;\n            }\n            uint256[] memory inheritedLayers = tokenIdToLayers[compositionLayerId];\n            require(inheritedLayers.length < MAX_LAYERS);\n            for (uint j = 0; j < inheritedLayers.length; j++) { \n                require(actualSize < MAX_LAYERS);\n                for (uint k = 0; k < layers.length; k++) { \n                    if (layers[k] == inheritedLayers[j]) {\n                        return false;\n                    }\n                    if (layers[k] == 0) { \n                        break;\n                    }\n                }\n                layers[actualSize] = inheritedLayers[j];\n                actualSize += 1;\n            }\n        }\n        return _isUnique(_trim(layers, actualSize), _imageHash);\n    }\n\n    /**\n    * @dev trims the given array to a given size\n    * @param _layers uint256[] the array of layers that will make up the composition\n    * @param _size uint the array of layers that will make up the composition\n    * @return uint256[] array trimmed to given size\n    */\n    function _trim(uint256[] _layers, uint _size) private pure returns(uint256[]) { \n        uint256[] memory trimmedLayers = new uint256[](_size);\n        for (uint i = 0; i < _size; i++) { \n            trimmedLayers[i] = _layers[i];\n        }\n\n        return trimmedLayers;\n    }\n\n    /**\n    * @dev checks if a token is an existing token by checking if it has non-zero layers\n    * @param _tokenId uint256 token ID\n    * @return bool whether or not the given tokenId exists according to its layers\n    */\n    function _tokenLayersExist(uint256 _tokenId) private view returns (bool) { \n        return tokenIdToLayers[_tokenId].length != 0;\n    }\n\n    /**\n    * @dev set composition price for a token\n    * @param _tokenId uint256 token ID\n    * @param _price uint256 new composition price\n    */\n    function _setCompositionPrice(uint256 _tokenId, uint256 _price) private {\n        require(_price >= minCompositionFee);\n        tokenIdToCompositionPrice[_tokenId] = _price;\n        emit CompositionPriceChanged(_tokenId, _price, msg.sender);\n    }\n\n    /**\n    * @dev set composition price increase rate a token\n    * @param _tokenId uint256 token ID\n    * @param _changeRate uint256 composition price change rate\n    */\n    function _setCompositionPriceChangeRate(uint256 _tokenId, uint256 _changeRate) private {\n        tokenIdToCompositionPriceChangeRate[_tokenId] = _changeRate;\n    }\n\n    /**\n    * @dev set permission to change comp price in the future\n    * @param _tokenId uint256 token ID\n    * @param _canChange bool whether or not the composition price can be manually changed\n    */\n    function _setCompositionPriceChangePermission(uint256 _tokenId, bool _canChange) private {\n        tokenIdToCompPricePermission[_tokenId] = _canChange;\n    }\n\n    /**\n    * @dev calculates the next token ID based on totalSupply\n    * @return uint256 for the next token ID\n    */\n    function _getNextTokenId() private view returns (uint256) {\n        return totalSupply().add(1); \n    }\n\n    /**\n    * @dev given an array of ids, returns whether or not this composition is unique\n    * assumes the layers are all base layers (flattened)\n    * @param _layers uint256[] an array of token IDs\n    * @param _imageHash uint256 image hash for the composition\n    * @return bool whether or not the composition is unique\n    */\n    function _isUnique(uint256[] _layers, uint256 _imageHash) private view returns (bool) { \n        return compositions[keccak256(_layers)] == false && imageHashes[_imageHash] == 0;\n    }\n\n// ----- ONLY OWNER FUNCTIONS ---------------------------------------------------------------------\n\n    /**\n    * @dev payout method for the contract owner to payout contract profits to a given address\n    * @param _to address for the payout \n    */\n    function payout (address _to) public onlyOwner { \n        totalPayments = 0;\n        address(_to).transfer(address(this).balance);\n    }\n\n    /**\n    * @dev sets global default composition fee for all new tokens\n    * @param _price uint256 new default composition price\n    */\n    function setMinCompositionFee(uint256 _price) public onlyOwner { \n        minCompositionFee = _price;\n    }\n}",
  "sourcePath": "/Users/devin/code/blockchain/ethmoji/ethmoji-contracts/contracts/Composable.sol",
  "compiler": {
    "name": "solc",
    "version": "0.4.23+commit.124ca40d.Emscripten.clang"
  },
  "schemaVersion": "2.0.0",
  "updatedAt": "2018-04-22T21:25:08.082Z"
}