{
  "contractName": "Ethmoji",
  "abi": [
    {
      "constant": true,
      "inputs": [],
      "name": "totalPayments",
      "outputs": [
        {
          "name": "",
          "type": "uint256"
        }
      ],
      "payable": false,
      "stateMutability": "view",
      "type": "function"
    },
    {
      "constant": true,
      "inputs": [
        {
          "name": "",
          "type": "uint256"
        }
      ],
      "name": "tokenIdToCompPricePermission",
      "outputs": [
        {
          "name": "",
          "type": "bool"
        }
      ],
      "payable": false,
      "stateMutability": "view",
      "type": "function"
    },
    {
      "constant": true,
      "inputs": [],
      "name": "name",
      "outputs": [
        {
          "name": "",
          "type": "string"
        }
      ],
      "payable": false,
      "stateMutability": "view",
      "type": "function"
    },
    {
      "constant": true,
      "inputs": [
        {
          "name": "_tokenId",
          "type": "uint256"
        }
      ],
      "name": "getApproved",
      "outputs": [
        {
          "name": "",
          "type": "address"
        }
      ],
      "payable": false,
      "stateMutability": "view",
      "type": "function"
    },
    {
      "constant": false,
      "inputs": [
        {
          "name": "_to",
          "type": "address"
        },
        {
          "name": "_tokenId",
          "type": "uint256"
        }
      ],
      "name": "approve",
      "outputs": [],
      "payable": false,
      "stateMutability": "nonpayable",
      "type": "function"
    },
    {
      "constant": false,
      "inputs": [
        {
          "name": "_to",
          "type": "address"
        }
      ],
      "name": "payout",
      "outputs": [],
      "payable": false,
      "stateMutability": "nonpayable",
      "type": "function"
    },
    {
      "constant": true,
      "inputs": [],
      "name": "totalSupply",
      "outputs": [
        {
          "name": "",
          "type": "uint256"
        }
      ],
      "payable": false,
      "stateMutability": "view",
      "type": "function"
    },
    {
      "constant": true,
      "inputs": [
        {
          "name": "_tokenIds",
          "type": "uint256[]"
        }
      ],
      "name": "getTotalCompositionPrice",
      "outputs": [
        {
          "name": "",
          "type": "uint256"
        }
      ],
      "payable": false,
      "stateMutability": "view",
      "type": "function"
    },
    {
      "constant": true,
      "inputs": [
        {
          "name": "_tokenId",
          "type": "uint256"
        }
      ],
      "name": "getCompositionPrice",
      "outputs": [
        {
          "name": "",
          "type": "uint256"
        }
      ],
      "payable": false,
      "stateMutability": "view",
      "type": "function"
    },
    {
      "constant": false,
      "inputs": [
        {
          "name": "_from",
          "type": "address"
        },
        {
          "name": "_to",
          "type": "address"
        },
        {
          "name": "_tokenId",
          "type": "uint256"
        }
      ],
      "name": "transferFrom",
      "outputs": [],
      "payable": false,
      "stateMutability": "nonpayable",
      "type": "function"
    },
    {
      "constant": true,
      "inputs": [
        {
          "name": "_owner",
          "type": "address"
        },
        {
          "name": "_index",
          "type": "uint256"
        }
      ],
      "name": "tokenOfOwnerByIndex",
      "outputs": [
        {
          "name": "",
          "type": "uint256"
        }
      ],
      "payable": false,
      "stateMutability": "view",
      "type": "function"
    },
    {
      "constant": true,
      "inputs": [
        {
          "name": "",
          "type": "uint256"
        }
      ],
      "name": "tokenIdToCompositionPrice",
      "outputs": [
        {
          "name": "",
          "type": "uint256"
        }
      ],
      "payable": false,
      "stateMutability": "view",
      "type": "function"
    },
    {
      "constant": true,
      "inputs": [
        {
          "name": "",
          "type": "uint256"
        },
        {
          "name": "",
          "type": "uint256"
        }
      ],
      "name": "tokenIdToLayers",
      "outputs": [
        {
          "name": "",
          "type": "uint256"
        }
      ],
      "payable": false,
      "stateMutability": "view",
      "type": "function"
    },
    {
      "constant": false,
      "inputs": [],
      "name": "unpause",
      "outputs": [],
      "payable": false,
      "stateMutability": "nonpayable",
      "type": "function"
    },
    {
      "constant": false,
      "inputs": [
        {
          "name": "_from",
          "type": "address"
        },
        {
          "name": "_to",
          "type": "address"
        },
        {
          "name": "_tokenId",
          "type": "uint256"
        }
      ],
      "name": "safeTransferFrom",
      "outputs": [],
      "payable": false,
      "stateMutability": "nonpayable",
      "type": "function"
    },
    {
      "constant": true,
      "inputs": [
        {
          "name": "_tokenId",
          "type": "uint256"
        }
      ],
      "name": "exists",
      "outputs": [
        {
          "name": "",
          "type": "bool"
        }
      ],
      "payable": false,
      "stateMutability": "view",
      "type": "function"
    },
    {
      "constant": true,
      "inputs": [
        {
          "name": "_index",
          "type": "uint256"
        }
      ],
      "name": "tokenByIndex",
      "outputs": [
        {
          "name": "",
          "type": "uint256"
        }
      ],
      "payable": false,
      "stateMutability": "view",
      "type": "function"
    },
    {
      "constant": true,
      "inputs": [],
      "name": "paused",
      "outputs": [
        {
          "name": "",
          "type": "bool"
        }
      ],
      "payable": false,
      "stateMutability": "view",
      "type": "function"
    },
    {
      "constant": false,
      "inputs": [],
      "name": "withdrawPayments",
      "outputs": [],
      "payable": false,
      "stateMutability": "nonpayable",
      "type": "function"
    },
    {
      "constant": true,
      "inputs": [
        {
          "name": "_tokenId",
          "type": "uint256"
        }
      ],
      "name": "ownerOf",
      "outputs": [
        {
          "name": "",
          "type": "address"
        }
      ],
      "payable": false,
      "stateMutability": "view",
      "type": "function"
    },
    {
      "constant": true,
      "inputs": [
        {
          "name": "_owner",
          "type": "address"
        }
      ],
      "name": "balanceOf",
      "outputs": [
        {
          "name": "",
          "type": "uint256"
        }
      ],
      "payable": false,
      "stateMutability": "view",
      "type": "function"
    },
    {
      "constant": true,
      "inputs": [
        {
          "name": "",
          "type": "bytes32"
        }
      ],
      "name": "compositions",
      "outputs": [
        {
          "name": "",
          "type": "bool"
        }
      ],
      "payable": false,
      "stateMutability": "view",
      "type": "function"
    },
    {
      "constant": false,
      "inputs": [],
      "name": "pause",
      "outputs": [],
      "payable": false,
      "stateMutability": "nonpayable",
      "type": "function"
    },
    {
      "constant": true,
      "inputs": [],
      "name": "owner",
      "outputs": [
        {
          "name": "",
          "type": "address"
        }
      ],
      "payable": false,
      "stateMutability": "view",
      "type": "function"
    },
    {
      "constant": true,
      "inputs": [],
      "name": "symbol",
      "outputs": [
        {
          "name": "",
          "type": "string"
        }
      ],
      "payable": false,
      "stateMutability": "view",
      "type": "function"
    },
    {
      "constant": false,
      "inputs": [
        {
          "name": "_to",
          "type": "address"
        },
        {
          "name": "_approved",
          "type": "bool"
        }
      ],
      "name": "setApprovalForAll",
      "outputs": [],
      "payable": false,
      "stateMutability": "nonpayable",
      "type": "function"
    },
    {
      "constant": true,
      "inputs": [],
      "name": "NAME",
      "outputs": [
        {
          "name": "",
          "type": "string"
        }
      ],
      "payable": false,
      "stateMutability": "view",
      "type": "function"
    },
    {
      "constant": true,
      "inputs": [
        {
          "name": "",
          "type": "uint256"
        }
      ],
      "name": "imageHashes",
      "outputs": [
        {
          "name": "",
          "type": "uint256"
        }
      ],
      "payable": false,
      "stateMutability": "view",
      "type": "function"
    },
    {
      "constant": true,
      "inputs": [
        {
          "name": "",
          "type": "uint256"
        }
      ],
      "name": "tokenIdToCompositionPriceChangeRate",
      "outputs": [
        {
          "name": "",
          "type": "uint256"
        }
      ],
      "payable": false,
      "stateMutability": "view",
      "type": "function"
    },
    {
      "constant": true,
      "inputs": [
        {
          "name": "_tokenId",
          "type": "uint256"
        }
      ],
      "name": "getTokenLayers",
      "outputs": [
        {
          "name": "",
          "type": "uint256[]"
        }
      ],
      "payable": false,
      "stateMutability": "view",
      "type": "function"
    },
    {
      "constant": false,
      "inputs": [
        {
          "name": "_from",
          "type": "address"
        },
        {
          "name": "_to",
          "type": "address"
        },
        {
          "name": "_tokenId",
          "type": "uint256"
        },
        {
          "name": "_data",
          "type": "bytes"
        }
      ],
      "name": "safeTransferFrom",
      "outputs": [],
      "payable": false,
      "stateMutability": "nonpayable",
      "type": "function"
    },
    {
      "constant": true,
      "inputs": [],
      "name": "isCompositionOnlyWithBaseLayers",
      "outputs": [
        {
          "name": "",
          "type": "bool"
        }
      ],
      "payable": false,
      "stateMutability": "view",
      "type": "function"
    },
    {
      "constant": false,
      "inputs": [
        {
          "name": "_price",
          "type": "uint256"
        }
      ],
      "name": "setMinCompositionFee",
      "outputs": [],
      "payable": false,
      "stateMutability": "nonpayable",
      "type": "function"
    },
    {
      "constant": true,
      "inputs": [],
      "name": "minCompositionFee",
      "outputs": [
        {
          "name": "",
          "type": "uint256"
        }
      ],
      "payable": false,
      "stateMutability": "view",
      "type": "function"
    },
    {
      "constant": true,
      "inputs": [],
      "name": "MAX_LAYERS",
      "outputs": [
        {
          "name": "",
          "type": "uint256"
        }
      ],
      "payable": false,
      "stateMutability": "view",
      "type": "function"
    },
    {
      "constant": true,
      "inputs": [
        {
          "name": "_tokenId",
          "type": "uint256"
        }
      ],
      "name": "tokenURI",
      "outputs": [
        {
          "name": "",
          "type": "string"
        }
      ],
      "payable": false,
      "stateMutability": "view",
      "type": "function"
    },
    {
      "constant": true,
      "inputs": [
        {
          "name": "_tokenIds",
          "type": "uint256[]"
        },
        {
          "name": "_imageHash",
          "type": "uint256"
        }
      ],
      "name": "isValidComposition",
      "outputs": [
        {
          "name": "",
          "type": "bool"
        }
      ],
      "payable": false,
      "stateMutability": "view",
      "type": "function"
    },
    {
      "constant": false,
      "inputs": [
        {
          "name": "_tokenId",
          "type": "uint256"
        },
        {
          "name": "_price",
          "type": "uint256"
        }
      ],
      "name": "setCompositionPrice",
      "outputs": [],
      "payable": false,
      "stateMutability": "nonpayable",
      "type": "function"
    },
    {
      "constant": true,
      "inputs": [
        {
          "name": "",
          "type": "uint256"
        }
      ],
      "name": "tokenIdToImageHash",
      "outputs": [
        {
          "name": "",
          "type": "uint256"
        }
      ],
      "payable": false,
      "stateMutability": "view",
      "type": "function"
    },
    {
      "constant": true,
      "inputs": [
        {
          "name": "",
          "type": "address"
        }
      ],
      "name": "payments",
      "outputs": [
        {
          "name": "",
          "type": "uint256"
        }
      ],
      "payable": false,
      "stateMutability": "view",
      "type": "function"
    },
    {
      "constant": true,
      "inputs": [
        {
          "name": "_owner",
          "type": "address"
        },
        {
          "name": "_operator",
          "type": "address"
        }
      ],
      "name": "isApprovedForAll",
      "outputs": [
        {
          "name": "",
          "type": "bool"
        }
      ],
      "payable": false,
      "stateMutability": "view",
      "type": "function"
    },
    {
      "constant": false,
      "inputs": [
        {
          "name": "_to",
          "type": "address"
        },
        {
          "name": "_compositionPrice",
          "type": "uint256"
        },
        {
          "name": "_changeRate",
          "type": "uint256"
        },
        {
          "name": "_changeableCompPrice",
          "type": "bool"
        },
        {
          "name": "_imageHash",
          "type": "uint256"
        }
      ],
      "name": "mintTo",
      "outputs": [],
      "payable": false,
      "stateMutability": "nonpayable",
      "type": "function"
    },
    {
      "constant": false,
      "inputs": [
        {
          "name": "newOwner",
          "type": "address"
        }
      ],
      "name": "transferOwnership",
      "outputs": [],
      "payable": false,
      "stateMutability": "nonpayable",
      "type": "function"
    },
    {
      "constant": true,
      "inputs": [],
      "name": "SYMBOL",
      "outputs": [
        {
          "name": "",
          "type": "string"
        }
      ],
      "payable": false,
      "stateMutability": "view",
      "type": "function"
    },
    {
      "inputs": [],
      "payable": false,
      "stateMutability": "nonpayable",
      "type": "constructor"
    },
    {
      "anonymous": false,
      "inputs": [
        {
          "indexed": false,
          "name": "tokenId",
          "type": "uint256"
        }
      ],
      "name": "BaseTokenCreated",
      "type": "event"
    },
    {
      "anonymous": false,
      "inputs": [
        {
          "indexed": false,
          "name": "tokenId",
          "type": "uint256"
        },
        {
          "indexed": false,
          "name": "layers",
          "type": "uint256[]"
        },
        {
          "indexed": true,
          "name": "owner",
          "type": "address"
        }
      ],
      "name": "CompositionTokenCreated",
      "type": "event"
    },
    {
      "anonymous": false,
      "inputs": [
        {
          "indexed": false,
          "name": "tokenId",
          "type": "uint256"
        },
        {
          "indexed": false,
          "name": "price",
          "type": "uint256"
        },
        {
          "indexed": true,
          "name": "owner",
          "type": "address"
        }
      ],
      "name": "CompositionPriceChanged",
      "type": "event"
    },
    {
      "anonymous": false,
      "inputs": [
        {
          "indexed": false,
          "name": "tokenId",
          "type": "uint256"
        },
        {
          "indexed": false,
          "name": "amount",
          "type": "uint256"
        },
        {
          "indexed": true,
          "name": "owner",
          "type": "address"
        }
      ],
      "name": "RoyaltiesPaid",
      "type": "event"
    },
    {
      "anonymous": false,
      "inputs": [],
      "name": "Pause",
      "type": "event"
    },
    {
      "anonymous": false,
      "inputs": [],
      "name": "Unpause",
      "type": "event"
    },
    {
      "anonymous": false,
      "inputs": [
        {
          "indexed": true,
          "name": "previousOwner",
          "type": "address"
        },
        {
          "indexed": true,
          "name": "newOwner",
          "type": "address"
        }
      ],
      "name": "OwnershipTransferred",
      "type": "event"
    },
    {
      "anonymous": false,
      "inputs": [
        {
          "indexed": true,
          "name": "_from",
          "type": "address"
        },
        {
          "indexed": true,
          "name": "_to",
          "type": "address"
        },
        {
          "indexed": false,
          "name": "_tokenId",
          "type": "uint256"
        }
      ],
      "name": "Transfer",
      "type": "event"
    },
    {
      "anonymous": false,
      "inputs": [
        {
          "indexed": true,
          "name": "_owner",
          "type": "address"
        },
        {
          "indexed": true,
          "name": "_approved",
          "type": "address"
        },
        {
          "indexed": false,
          "name": "_tokenId",
          "type": "uint256"
        }
      ],
      "name": "Approval",
      "type": "event"
    },
    {
      "anonymous": false,
      "inputs": [
        {
          "indexed": true,
          "name": "_owner",
          "type": "address"
        },
        {
          "indexed": true,
          "name": "_operator",
          "type": "address"
        },
        {
          "indexed": false,
          "name": "_approved",
          "type": "bool"
        }
      ],
      "name": "ApprovalForAll",
      "type": "event"
    },
    {
      "constant": false,
      "inputs": [
        {
          "name": "newOwner",
          "type": "address"
        }
      ],
      "name": "initialize",
      "outputs": [],
      "payable": false,
      "stateMutability": "nonpayable",
      "type": "function"
    },
    {
      "constant": false,
      "inputs": [
        {
          "name": "_tokenIds",
          "type": "uint256[]"
        },
        {
          "name": "_imageHash",
          "type": "uint256"
        }
      ],
      "name": "compose",
      "outputs": [],
      "payable": true,
      "stateMutability": "payable",
      "type": "function"
    }
  ],
  "bytecode": "0x60806040526000600e60006101000a81548160ff0219169083151502179055503480156200002c57600080fd5b506040805190810160405280600781526020017f4574686d6f6a69000000000000000000000000000000000000000000000000008152506040805190810160405280600381526020017f454d4a00000000000000000000000000000000000000000000000000000000008152508160049080519060200190620000b192919062000114565b508060059080519060200190620000ca92919062000114565b50505033600b60006101000a81548173ffffffffffffffffffffffffffffffffffffffff021916908373ffffffffffffffffffffffffffffffffffffffff160217905550620001c3565b828054600181600116156101000203166002900490600052602060002090601f016020900481019282601f106200015757805160ff191683800117855562000188565b8280016001018555821562000188579182015b82811115620001875782518255916020019190600101906200016a565b5b5090506200019791906200019b565b5090565b620001c091905b80821115620001bc576000816000905550600101620001a2565b5090565b90565b6141b980620001d36000396000f30060806040526004361061022f576000357c0100000000000000000000000000000000000000000000000000000000900463ffffffff1680625b448714610234578063030838831461025f57806304ff392e146102c257806306fdde0314610307578063081812fc14610397578063095ea7b3146104045780630b7e9c441461045157806318160ddd146104945780631983111d146104bf5780631f89e9111461053957806323b872dd1461057a5780632f745c59146105e757806338e50d3c146106485780633f27afa7146106895780633f4ba83a146106d457806342842e0e146106eb5780634f558e79146107585780634f6ccce71461079d5780635c975abb146107de5780636103d70b1461080d5780636352211e1461082457806370a082311461089157806370e2b625146108e85780638456cb59146109315780638da5cb5b1461094857806395d89b411461099f578063a22cb46514610a2f578063a3f4df7e14610a7e578063a8d4ab6c14610b0e578063a919e42514610b4f578063aae07cd014610b90578063b88d4fde14610c12578063b9e3a8dd14610cc5578063befc764214610cf4578063c4d66de814610d21578063c73ec2eb14610d64578063c829b0e314610d8f578063c87b56dd14610dba578063d2769df114610e60578063d5e0d8fc14610ee8578063da16076714610f1f578063e2982c2114610f60578063e985e9c514610fb7578063ef95957714611032578063f2fde38b1461109f578063f76f8d78146110e2575b600080fd5b34801561024057600080fd5b50610249611172565b6040518082815260200191505060405180910390f35b6102c06004803603810190808035906020019082018035906020019080806020026020016040519081016040528093929190818152602001838360200280828437820191505050505050919291929080359060200190929190505050611178565b005b3480156102ce57600080fd5b506102ed600480360381019080803590602001909291905050506111e8565b604051808215151515815260200191505060405180910390f35b34801561031357600080fd5b5061031c611208565b6040518080602001828103825283818151815260200191508051906020019080838360005b8381101561035c578082015181840152602081019050610341565b50505050905090810190601f1680156103895780820380516001836020036101000a031916815260200191505b509250505060405180910390f35b3480156103a357600080fd5b506103c2600480360381019080803590602001909291905050506112aa565b604051808273ffffffffffffffffffffffffffffffffffffffff1673ffffffffffffffffffffffffffffffffffffffff16815260200191505060405180910390f35b34801561041057600080fd5b5061044f600480360381019080803573ffffffffffffffffffffffffffffffffffffffff169060200190929190803590602001909291905050506112e7565b005b34801561045d57600080fd5b50610492600480360381019080803573ffffffffffffffffffffffffffffffffffffffff1690602001909291905050506114ad565b005b3480156104a057600080fd5b506104a9611572565b6040518082815260200191505060405180910390f35b3480156104cb57600080fd5b506105236004803603810190808035906020019082018035906020019080806020026020016040519081016040528093929190818152602001838360200280828437820191505050505050919291929050505061157f565b6040518082815260200191505060405180910390f35b34801561054557600080fd5b5061056460048036038101908080359060200190929190505050611624565b6040518082815260200191505060405180910390f35b34801561058657600080fd5b506105e5600480360381019080803573ffffffffffffffffffffffffffffffffffffffff169060200190929190803573ffffffffffffffffffffffffffffffffffffffff16906020019092919080359060200190929190505050611641565b005b3480156105f357600080fd5b50610632600480360381019080803573ffffffffffffffffffffffffffffffffffffffff16906020019092919080359060200190929190505050611758565b6040518082815260200191505060405180910390f35b34801561065457600080fd5b50610673600480360381019080803590602001909291905050506117cf565b6040518082815260200191505060405180910390f35b34801561069557600080fd5b506106be60048036038101908080359060200190929190803590602001909291905050506117e7565b6040518082815260200191505060405180910390f35b3480156106e057600080fd5b506106e9611817565b005b3480156106f757600080fd5b50610756600480360381019080803573ffffffffffffffffffffffffffffffffffffffff169060200190929190803573ffffffffffffffffffffffffffffffffffffffff169060200190929190803590602001909291905050506118d7565b005b34801561076457600080fd5b506107836004803603810190808035906020019092919050505061190f565b604051808215151515815260200191505060405180910390f35b3480156107a957600080fd5b506107c860048036038101908080359060200190929190505050611980565b6040518082815260200191505060405180910390f35b3480156107ea57600080fd5b506107f36119b8565b604051808215151515815260200191505060405180910390f35b34801561081957600080fd5b506108226119cb565b005b34801561083057600080fd5b5061084f60048036038101908080359060200190929190505050611af4565b604051808273ffffffffffffffffffffffffffffffffffffffff1673ffffffffffffffffffffffffffffffffffffffff16815260200191505060405180910390f35b34801561089d57600080fd5b506108d2600480360381019080803573ffffffffffffffffffffffffffffffffffffffff169060200190929190505050611b71565b6040518082815260200191505060405180910390f35b3480156108f457600080fd5b506109176004803603810190808035600019169060200190929190505050611bf5565b604051808215151515815260200191505060405180910390f35b34801561093d57600080fd5b50610946611c15565b005b34801561095457600080fd5b5061095d611cd6565b604051808273ffffffffffffffffffffffffffffffffffffffff1673ffffffffffffffffffffffffffffffffffffffff16815260200191505060405180910390f35b3480156109ab57600080fd5b506109b4611cfc565b6040518080602001828103825283818151815260200191508051906020019080838360005b838110156109f45780820151818401526020810190506109d9565b50505050905090810190601f168015610a215780820380516001836020036101000a031916815260200191505b509250505060405180910390f35b348015610a3b57600080fd5b50610a7c600480360381019080803573ffffffffffffffffffffffffffffffffffffffff169060200190929190803515159060200190929190505050611d9e565b005b348015610a8a57600080fd5b50610a93611eda565b6040518080602001828103825283818151815260200191508051906020019080838360005b83811015610ad3578082015181840152602081019050610ab8565b50505050905090810190601f168015610b005780820380516001836020036101000a031916815260200191505b509250505060405180910390f35b348015610b1a57600080fd5b50610b3960048036038101908080359060200190929190505050611f13565b6040518082815260200191505060405180910390f35b348015610b5b57600080fd5b50610b7a60048036038101908080359060200190929190505050611f2b565b6040518082815260200191505060405180910390f35b348015610b9c57600080fd5b50610bbb60048036038101908080359060200190929190505050611f43565b6040518080602001828103825283818151815260200191508051906020019060200280838360005b83811015610bfe578082015181840152602081019050610be3565b505050509050019250505060405180910390f35b348015610c1e57600080fd5b50610cc3600480360381019080803573ffffffffffffffffffffffffffffffffffffffff169060200190929190803573ffffffffffffffffffffffffffffffffffffffff16906020019092919080359060200190929190803590602001908201803590602001908080601f0160208091040260200160405190810160405280939291908181526020018383808284378201915050505050509192919290505050611fae565b005b348015610cd157600080fd5b50610cda611fed565b604051808215151515815260200191505060405180910390f35b348015610d0057600080fd5b50610d1f60048036038101908080359060200190929190505050612000565b005b348015610d2d57600080fd5b50610d62600480360381019080803573ffffffffffffffffffffffffffffffffffffffff169060200190929190505050612066565b005b348015610d7057600080fd5b50610d7961210a565b6040518082815260200191505060405180910390f35b348015610d9b57600080fd5b50610da4612110565b6040518082815260200191505060405180910390f35b348015610dc657600080fd5b50610de560048036038101908080359060200190929190505050612115565b6040518080602001828103825283818151815260200191508051906020019080838360005b83811015610e25578082015181840152602081019050610e0a565b50505050905090810190601f168015610e525780820380516001836020036101000a031916815260200191505b509250505060405180910390f35b348015610e6c57600080fd5b50610ece60048036038101908080359060200190820180359060200190808060200260200160405190810160405280939291908181526020018383602002808284378201915050505050509192919290803590602001909291905050506121de565b604051808215151515815260200191505060405180910390f35b348015610ef457600080fd5b50610f1d6004803603810190808035906020019092919080359060200190929190505050612219565b005b348015610f2b57600080fd5b50610f4a6004803603810190808035906020019092919050505061229e565b6040518082815260200191505060405180910390f35b348015610f6c57600080fd5b50610fa1600480360381019080803573ffffffffffffffffffffffffffffffffffffffff1690602001909291905050506122b6565b6040518082815260200191505060405180910390f35b348015610fc357600080fd5b50611018600480360381019080803573ffffffffffffffffffffffffffffffffffffffff169060200190929190803573ffffffffffffffffffffffffffffffffffffffff1690602001909291905050506122ce565b604051808215151515815260200191505060405180910390f35b34801561103e57600080fd5b5061109d600480360381019080803573ffffffffffffffffffffffffffffffffffffffff169060200190929190803590602001909291908035906020019092919080351515906020019092919080359060200190929190505050612362565b005b3480156110ab57600080fd5b506110e0600480360381019080803573ffffffffffffffffffffffffffffffffffffffff169060200190929190505050612589565b005b3480156110ee57600080fd5b506110f76126e1565b6040518080602001828103825283818151815260200191508051906020019080838360005b8381101561113757808201518184015260208101905061111c565b50505050905090810190601f1680156111645780820380516001836020036101000a031916815260200191505b509250505060405180910390f35b600d5481565b6000600e60009054906101000a900460ff1615151561119657600080fd5b6111a0838361271a565b600090505b82518110156111e3576111d66111d184838151811015156111c257fe5b90602001906020020151611af4565b612d83565b80806001019150506111a5565b505050565b60126020528060005260406000206000915054906101000a900460ff1681565b606060048054600181600116156101000203166002900480601f0160208091040260200160405190810160405280929190818152602001828054600181600116156101000203166002900480156112a05780601f10611275576101008083540402835291602001916112a0565b820191906000526020600020905b81548152906001019060200180831161128357829003601f168201915b5050505050905090565b60006001600083815260200190815260200160002060009054906101000a900473ffffffffffffffffffffffffffffffffffffffff169050919050565b60006112f282611af4565b90508073ffffffffffffffffffffffffffffffffffffffff168373ffffffffffffffffffffffffffffffffffffffff161415151561132f57600080fd5b8073ffffffffffffffffffffffffffffffffffffffff163373ffffffffffffffffffffffffffffffffffffffff16148061136f575061136e81336122ce565b5b151561137a57600080fd5b600073ffffffffffffffffffffffffffffffffffffffff1661139b836112aa565b73ffffffffffffffffffffffffffffffffffffffff161415806113eb5750600073ffffffffffffffffffffffffffffffffffffffff168373ffffffffffffffffffffffffffffffffffffffff1614155b156114a857826001600084815260200190815260200160002060006101000a81548173ffffffffffffffffffffffffffffffffffffffff021916908373ffffffffffffffffffffffffffffffffffffffff1602179055508273ffffffffffffffffffffffffffffffffffffffff168173ffffffffffffffffffffffffffffffffffffffff167f8c5be1e5ebec7d5bd14f71427d1e84f3dd0314c0f7b2291e5b200ac8c7c3b925846040518082815260200191505060405180910390a35b505050565b600b60009054906101000a900473ffffffffffffffffffffffffffffffffffffffff1673ffffffffffffffffffffffffffffffffffffffff163373ffffffffffffffffffffffffffffffffffffffff1614151561150957600080fd5b6000600d819055508073ffffffffffffffffffffffffffffffffffffffff166108fc3073ffffffffffffffffffffffffffffffffffffffff16319081150290604051600060405180830381858888f1935050505015801561156e573d6000803e3d6000fd5b5050565b6000600880549050905090565b6000806000809150600090505b8351811015611603576115b584828151811015156115a657fe5b90602001906020020151612ea0565b15156115c057600080fd5b6115f4826010600087858151811015156115d657fe5b90602001906020020151815260200190815260200160002054612ec3565b9150808060010191505061158c565b611618611611836069612edf565b6064612f17565b91508192505050919050565b600060106000838152602001908152602001600020549050919050565b8061164c3382612f2d565b151561165757600080fd5b600073ffffffffffffffffffffffffffffffffffffffff168473ffffffffffffffffffffffffffffffffffffffff161415151561169357600080fd5b600073ffffffffffffffffffffffffffffffffffffffff168373ffffffffffffffffffffffffffffffffffffffff16141515156116cf57600080fd5b6116d98483612fc2565b6116e3848361312b565b6116ed8383613343565b8273ffffffffffffffffffffffffffffffffffffffff168473ffffffffffffffffffffffffffffffffffffffff167fddf252ad1be2c89b69c2b068fc378daa952ba7f163c4a11628f55a4df523b3ef846040518082815260200191505060405180910390a350505050565b600061176383611b71565b8210151561177057600080fd5b600660008473ffffffffffffffffffffffffffffffffffffffff1673ffffffffffffffffffffffffffffffffffffffff168152602001908152602001600020828154811015156117bc57fe5b9060005260206000200154905092915050565b60106020528060005260406000206000915090505481565b60136020528160005260406000208181548110151561180257fe5b90600052602060002001600091509150505481565b600b60009054906101000a900473ffffffffffffffffffffffffffffffffffffffff1673ffffffffffffffffffffffffffffffffffffffff163373ffffffffffffffffffffffffffffffffffffffff1614151561187357600080fd5b600e60009054906101000a900460ff16151561188e57600080fd5b6000600e60006101000a81548160ff0219169083151502179055507f7805862f689e2f13df9f062ff482ad3ad112aca9e0847911ed832e158c525b3360405160405180910390a1565b806118e23382612f2d565b15156118ed57600080fd5b6119098484846020604051908101604052806000815250611fae565b50505050565b60008060008084815260200190815260200160002060009054906101000a900473ffffffffffffffffffffffffffffffffffffffff169050600073ffffffffffffffffffffffffffffffffffffffff168173ffffffffffffffffffffffffffffffffffffffff161415915050919050565b600061198a611572565b8210151561199757600080fd5b6008828154811015156119a657fe5b90600052602060002001549050919050565b600e60009054906101000a900460ff1681565b600080339150600c60008373ffffffffffffffffffffffffffffffffffffffff1673ffffffffffffffffffffffffffffffffffffffff16815260200190815260200160002054905060008114151515611a2357600080fd5b803073ffffffffffffffffffffffffffffffffffffffff163110151515611a4957600080fd5b611a5e81600d5461341a90919063ffffffff16565b600d819055506000600c60008473ffffffffffffffffffffffffffffffffffffffff1673ffffffffffffffffffffffffffffffffffffffff168152602001908152602001600020819055508173ffffffffffffffffffffffffffffffffffffffff166108fc829081150290604051600060405180830381858888f19350505050158015611aef573d6000803e3d6000fd5b505050565b60008060008084815260200190815260200160002060009054906101000a900473ffffffffffffffffffffffffffffffffffffffff169050600073ffffffffffffffffffffffffffffffffffffffff168173ffffffffffffffffffffffffffffffffffffffff1614151515611b6857600080fd5b80915050919050565b60008073ffffffffffffffffffffffffffffffffffffffff168273ffffffffffffffffffffffffffffffffffffffff1614151515611bae57600080fd5b600260008373ffffffffffffffffffffffffffffffffffffffff1673ffffffffffffffffffffffffffffffffffffffff168152602001908152602001600020549050919050565b60146020528060005260406000206000915054906101000a900460ff1681565b600b60009054906101000a900473ffffffffffffffffffffffffffffffffffffffff1673ffffffffffffffffffffffffffffffffffffffff163373ffffffffffffffffffffffffffffffffffffffff16141515611c7157600080fd5b600e60009054906101000a900460ff16151515611c8d57600080fd5b6001600e60006101000a81548160ff0219169083151502179055507f6985a02210a168e66602d3235cb6db0e70f92b3ba4d376a33c0f3d9434bff62560405160405180910390a1565b600b60009054906101000a900473ffffffffffffffffffffffffffffffffffffffff1681565b606060058054600181600116156101000203166002900480601f016020809104026020016040519081016040528092919081815260200182805460018160011615610100020316600290048015611d945780601f10611d6957610100808354040283529160200191611d94565b820191906000526020600020905b815481529060010190602001808311611d7757829003601f168201915b5050505050905090565b3373ffffffffffffffffffffffffffffffffffffffff168273ffffffffffffffffffffffffffffffffffffffff1614151515611dd957600080fd5b80600360003373ffffffffffffffffffffffffffffffffffffffff1673ffffffffffffffffffffffffffffffffffffffff16815260200190815260200160002060008473ffffffffffffffffffffffffffffffffffffffff1673ffffffffffffffffffffffffffffffffffffffff16815260200190815260200160002060006101000a81548160ff0219169083151502179055508173ffffffffffffffffffffffffffffffffffffffff163373ffffffffffffffffffffffffffffffffffffffff167f17307eab39ab6107e8899845ad3d59bd9653f200f220920489ca2b5937696c3183604051808215151515815260200191505060405180910390a35050565b6040805190810160405280600781526020017f4574686d6f6a690000000000000000000000000000000000000000000000000081525081565b60156020528060005260406000206000915090505481565b60116020528060005260406000206000915090505481565b606060136000838152602001908152602001600020805480602002602001604051908101604052809291908181526020018280548015611fa257602002820191906000526020600020905b815481526020019060010190808311611f8e575b50505050509050919050565b81611fb93382612f2d565b1515611fc457600080fd5b611fcf858585611641565b611fdb85858585613433565b1515611fe657600080fd5b5050505050565b601760009054906101000a900460ff1681565b600b60009054906101000a900473ffffffffffffffffffffffffffffffffffffffff1673ffffffffffffffffffffffffffffffffffffffff163373ffffffffffffffffffffffffffffffffffffffff1614151561205c57600080fd5b80600f8190555050565b601760019054906101000a900460ff1615151561208257600080fd5b6001601760006101000a81548160ff02191690831515021790555066038d7ea4c68000600f8190555080600b60006101000a81548173ffffffffffffffffffffffffffffffffffffffff021916908373ffffffffffffffffffffffffffffffffffffffff1602179055506001601760016101000a81548160ff02191690831515021790555050565b600f5481565b606481565b60606121208261190f565b151561212b57600080fd5b600a60008381526020019081526020016000208054600181600116156101000203166002900480601f0160208091040260200160405190810160405280929190818152602001828054600181600116156101000203166002900480156121d25780601f106121a7576101008083540402835291602001916121d2565b820191906000526020600020905b8154815290600101906020018083116121b557829003601f168201915b50505050509050919050565b6000601760009054906101000a900460ff1615612206576121ff8383613621565b9050612213565b6122108383613815565b90505b92915050565b813373ffffffffffffffffffffffffffffffffffffffff1661223a82611af4565b73ffffffffffffffffffffffffffffffffffffffff1614151561225c57600080fd5b600115156012600085815260200190815260200160002060009054906101000a900460ff16151514151561228f57600080fd5b6122998383613a34565b505050565b60166020528060005260406000206000915090505481565b600c6020528060005260406000206000915090505481565b6000600360008473ffffffffffffffffffffffffffffffffffffffff1673ffffffffffffffffffffffffffffffffffffffff16815260200190815260200160002060008373ffffffffffffffffffffffffffffffffffffffff1673ffffffffffffffffffffffffffffffffffffffff16815260200190815260200160002060009054906101000a900460ff16905092915050565b6000600b60009054906101000a900473ffffffffffffffffffffffffffffffffffffffff1673ffffffffffffffffffffffffffffffffffffffff163373ffffffffffffffffffffffffffffffffffffffff161415156123c057600080fd5b6123c8613ab7565b90506123d48682613ad9565b60206040519081016040528082815250601360008381526020019081526020016000209060016124059291906140a2565b506124716013600083815260200190815260200160002080548060200260200160405190810160405280929190818152602001828054801561246657602002820191906000526020600020905b815481526020019060010190808311612452575b505050505083613b30565b151561247c57600080fd5b600160146000602060405190810160405280858152506040518082600160200280838360005b838110156124bd5780820151818401526020810190506124a2565b5050505090500191505060405180910390206000191660001916815260200190815260200160002060006101000a81548160ff0219169083151502179055508060156000848152602001908152602001600020819055508160166000838152602001908152602001600020819055507f3f5bdceccefc96a1f5b67e0c030e1f5f27d4f940582f4114ee08d3599912e216816040518082815260200191505060405180910390a161256d8186613a34565b6125778185613bca565b6125818184613be6565b505050505050565b600b60009054906101000a900473ffffffffffffffffffffffffffffffffffffffff1673ffffffffffffffffffffffffffffffffffffffff163373ffffffffffffffffffffffffffffffffffffffff161415156125e557600080fd5b600073ffffffffffffffffffffffffffffffffffffffff168173ffffffffffffffffffffffffffffffffffffffff161415151561262157600080fd5b8073ffffffffffffffffffffffffffffffffffffffff16600b60009054906101000a900473ffffffffffffffffffffffffffffffffffffffff1673ffffffffffffffffffffffffffffffffffffffff167f8be0079c531659141344cd1fd0a4f28419497f9722a3daafe3b4186f6b6457e060405160405180910390a380600b60006101000a81548173ffffffffffffffffffffffffffffffffffffffff021916908373ffffffffffffffffffffffffffffffffffffffff16021790555050565b6040805190810160405280600381526020017f454d4a000000000000000000000000000000000000000000000000000000000081525081565b6000606060008060006060600080600080600e60009054906101000a900460ff1615151561274757600080fd5b60018c5111151561275757600080fd5b6127608c61157f565b9950600073ffffffffffffffffffffffffffffffffffffffff163373ffffffffffffffffffffffffffffffffffffffff161415801561279f5750893410155b15156127aa57600080fd5b60648c51111515156127bb57600080fd5b60646040519080825280602002602001820160405280156127eb5781602001602082028038833980820191505090505b50985060009750600096505b8b51871015612ae0578b8781518110151561280e57fe5b90602001906020020151955061282386612ea0565b151561282e57600080fd5b6013600087815260200190815260200160002080548060200260200160405190810160405280929190818152602001828054801561288b57602002820191906000526020600020905b815481526020019060010190808311612877575b50505050509450601760009054906101000a900460ff16156128b857600185511415156128b757600080fd5b5b606485511015156128c857600080fd5b600093505b84518410156129a9576064881015156128e557600080fd5b600092505b885183101561296257848481518110151561290157fe5b90602001906020020151898481518110151561291957fe5b906020019060200201511415151561293057600080fd5b6000898481518110151561294057fe5b90602001906020020151141561295557612962565b82806001019350506128ea565b848481518110151561297057fe5b90602001906020020151898981518110151561298857fe5b906020019060200201818152505060018801975083806001019450506128cd565b600073ffffffffffffffffffffffffffffffffffffffff166129ca87611af4565b73ffffffffffffffffffffffffffffffffffffffff16141515156129ed57600080fd5b612a126129f987611af4565b6010600089815260200190815260200160002054613c15565b612a1b86611af4565b73ffffffffffffffffffffffffffffffffffffffff167faa044fd0677f595122a532475e14efe539fe126d9ec7d9b7e66d7fcbec3636be87601060008a815260200190815260200160002054604051808381526020018281526020019250505060405180910390a2612abc60116000888152602001908152602001600020546010600089815260200190815260200160002054612ec390919063ffffffff16565b601060008881526020019081526020016000208190555086806001019750506127f7565b612ae8613ab7565b9150612af48989613cc9565b601360008481526020019081526020016000209080519060200190612b1a9291906140ef565b50612b8660136000848152602001908152602001600020805480602002602001604051908101604052809291908181526020018280548015612b7b57602002820191906000526020600020905b815481526020019060010190808311612b67575b50505050508c613b30565b1515612b9157600080fd5b60016014600060136000868152602001908152602001600020604051808280548015612bdc57602002820191906000526020600020905b815481526020019060010190808311612bc8575b505091505060405180910390206000191660001916815260200190815260200160002060006101000a81548160ff02191690831515021790555081601560008d8152602001908152602001600020819055508a6016600084815260200190815260200160002081905550612c503383613ad9565b89341115612cac57612c62348b61341a565b90503373ffffffffffffffffffffffffffffffffffffffff166108fc829081150290604051600060405180830381858888f19350505050158015612caa573d6000803e3d6000fd5b505b601760009054906101000a900460ff161515612ccf57612cce82600f54613a34565b5b3373ffffffffffffffffffffffffffffffffffffffff167f8258990f4da6775c9379703a14a2d112f3131e6b3a3840d1f6c25ccfe1051b9d836013600086815260200190815260200160002060405180838152602001806020018281038252838181548152602001915080548015612d6657602002820191906000526020600020905b815481526020019060010190808311612d52575b5050935050505060405180910390a2505050505050505050505050565b6000600c60008373ffffffffffffffffffffffffffffffffffffffff1673ffffffffffffffffffffffffffffffffffffffff16815260200190815260200160002054905060008114158015612def5750803073ffffffffffffffffffffffffffffffffffffffff163110155b15612e9c57612e0981600d5461341a90919063ffffffff16565b600d819055506000600c60008473ffffffffffffffffffffffffffffffffffffffff1673ffffffffffffffffffffffffffffffffffffffff168152602001908152602001600020819055508173ffffffffffffffffffffffffffffffffffffffff166108fc829081150290604051600060405180830381858888f19350505050158015612e9a573d6000803e3d6000fd5b505b5050565b600080601360008481526020019081526020016000208054905014159050919050565b60008183019050828110151515612ed657fe5b80905092915050565b600080831415612ef25760009050612f11565b8183029050818382811515612f0357fe5b04141515612f0d57fe5b8090505b92915050565b60008183811515612f2457fe5b04905092915050565b600080612f3983611af4565b90508073ffffffffffffffffffffffffffffffffffffffff168473ffffffffffffffffffffffffffffffffffffffff161480612fa857508373ffffffffffffffffffffffffffffffffffffffff16612f90846112aa565b73ffffffffffffffffffffffffffffffffffffffff16145b80612fb95750612fb881856122ce565b5b91505092915050565b8173ffffffffffffffffffffffffffffffffffffffff16612fe282611af4565b73ffffffffffffffffffffffffffffffffffffffff1614151561300457600080fd5b600073ffffffffffffffffffffffffffffffffffffffff166001600083815260200190815260200160002060009054906101000a900473ffffffffffffffffffffffffffffffffffffffff1673ffffffffffffffffffffffffffffffffffffffff161415156131275760006001600083815260200190815260200160002060006101000a81548173ffffffffffffffffffffffffffffffffffffffff021916908373ffffffffffffffffffffffffffffffffffffffff160217905550600073ffffffffffffffffffffffffffffffffffffffff168273ffffffffffffffffffffffffffffffffffffffff167f8c5be1e5ebec7d5bd14f71427d1e84f3dd0314c0f7b2291e5b200ac8c7c3b925836040518082815260200191505060405180910390a35b5050565b600080600061313a8585613d59565b600760008581526020019081526020016000205492506131a66001600660008873ffffffffffffffffffffffffffffffffffffffff1673ffffffffffffffffffffffffffffffffffffffff1681526020019081526020016000208054905061341a90919063ffffffff16565b9150600660008673ffffffffffffffffffffffffffffffffffffffff1673ffffffffffffffffffffffffffffffffffffffff168152602001908152602001600020828154811015156131f457fe5b9060005260206000200154905080600660008773ffffffffffffffffffffffffffffffffffffffff1673ffffffffffffffffffffffffffffffffffffffff1681526020019081526020016000208481548110151561324e57fe5b90600052602060002001819055506000600660008773ffffffffffffffffffffffffffffffffffffffff1673ffffffffffffffffffffffffffffffffffffffff168152602001908152602001600020838154811015156132aa57fe5b9060005260206000200181905550600660008673ffffffffffffffffffffffffffffffffffffffff1673ffffffffffffffffffffffffffffffffffffffff16815260200190815260200160002080548091906001900361330a919061413c565b50600060076000868152602001908152602001600020819055508260076000838152602001908152602001600020819055505050505050565b600061334f8383613e87565b600660008473ffffffffffffffffffffffffffffffffffffffff1673ffffffffffffffffffffffffffffffffffffffff168152602001908152602001600020805490509050600660008473ffffffffffffffffffffffffffffffffffffffff1673ffffffffffffffffffffffffffffffffffffffff168152602001908152602001600020829080600181540180825580915050906001820390600052602060002001600090919290919091505550806007600084815260200190815260200160002081905550505050565b600082821115151561342857fe5b818303905092915050565b6000806134558573ffffffffffffffffffffffffffffffffffffffff16613fdf565b15156134645760019150613618565b8473ffffffffffffffffffffffffffffffffffffffff1663f0b9e5ba8786866040518463ffffffff167c0100000000000000000000000000000000000000000000000000000000028152600401808473ffffffffffffffffffffffffffffffffffffffff1673ffffffffffffffffffffffffffffffffffffffff16815260200183815260200180602001828103825283818151815260200191508051906020019080838360005b8381101561352657808201518184015260208101905061350b565b50505050905090810190601f1680156135535780820380516001836020036101000a031916815260200191505b50945050505050602060405180830381600087803b15801561357457600080fd5b505af1158015613588573d6000803e3d6000fd5b505050506040513d602081101561359e57600080fd5b8101908080519060200190929190505050905063f0b9e5ba7c0100000000000000000000000000000000000000000000000000000000027bffffffffffffffffffffffffffffffffffffffffffffffffffffffff1916817bffffffffffffffffffffffffffffffffffffffffffffffffffffffff19161491505b50949350505050565b60006060600080606486511115151561363957600080fd5b85516040519080825280602002602001820160405280156136695781602001602082028038833980820191505090505b509250600091505b85518210156137ff5761369a868381518110151561368b57fe5b90602001906020020151612ea0565b15156136a9576000935061380c565b60016013600088858151811015156136bd57fe5b906020019060200201518152602001908152602001600020805490501415156136e9576000935061380c565b600090505b82518110156137f25760136000878481518110151561370957fe5b906020019060200201518152602001908152602001600020600081548110151561372f57fe5b9060005260206000200154838281518110151561374857fe5b906020019060200201511415613761576000935061380c565b6000838281518110151561377157fe5b9060200190602002015114156137e55760136000878481518110151561379357fe5b90602001906020020151815260200190815260200160002060008154811015156137b957fe5b906000526020600020015483828151811015156137d257fe5b90602001906020020181815250506137f2565b80806001019150506136ee565b8180600101925050613671565b6138098386613b30565b93505b50505092915050565b600060606000806000606060008060646040519080825280602002602001820160405280156138535781602001602082028038833980820191505090505b5096506000955060648a51111561386d5760009750613a27565b600094505b8951851015613a1157898581518110151561388957fe5b90602001906020020151935061389e84612ea0565b15156138ad5760009750613a27565b6013600085815260200190815260200160002080548060200260200160405190810160405280929190818152602001828054801561390a57602002820191906000526020600020905b8154815260200190600101908083116138f6575b505050505092506064835110151561392157600080fd5b600091505b8251821015613a045760648610151561393e57600080fd5b600090505b86518110156139bd57828281518110151561395a57fe5b90602001906020020151878281518110151561397257fe5b90602001906020020151141561398b5760009750613a27565b6000878281518110151561399b57fe5b9060200190602002015114156139b0576139bd565b8080600101915050613943565b82828151811015156139cb57fe5b9060200190602002015187878151811015156139e357fe5b90602001906020020181815250506001860195508180600101925050613926565b8480600101955050613872565b613a24613a1e8888613cc9565b8a613b30565b97505b5050505050505092915050565b600f548110151515613a4557600080fd5b8060106000848152602001908152602001600020819055503373ffffffffffffffffffffffffffffffffffffffff167f372883ed096f3aca24c33c36571b41f60a645cb114b5590f319e2e1c2606db6e8383604051808381526020018281526020019250505060405180910390a25050565b6000613ad46001613ac6611572565b612ec390919063ffffffff16565b905090565b613ae38282613ff2565b600880549050600960008381526020019081526020016000208190555060088190806001815401808255809150509060018203906000526020600020016000909192909190915055505050565b6000801515601460008560405180828051906020019060200280838360005b83811015613b6a578082015181840152602081019050613b4f565b5050505090500191505060405180910390206000191660001916815260200190815260200160002060009054906101000a900460ff161515148015613bc2575060006015600084815260200190815260200160002054145b905092915050565b8060116000848152602001908152602001600020819055505050565b806012600084815260200190815260200160002060006101000a81548160ff0219169083151502179055505050565b613c6781600c60008573ffffffffffffffffffffffffffffffffffffffff1673ffffffffffffffffffffffffffffffffffffffff16815260200190815260200160002054612ec390919063ffffffff16565b600c60008473ffffffffffffffffffffffffffffffffffffffff1673ffffffffffffffffffffffffffffffffffffffff16815260200190815260200160002081905550613cbf81600d54612ec390919063ffffffff16565b600d819055505050565b606080600083604051908082528060200260200182016040528015613cfd5781602001602082028038833980820191505090505b509150600090505b83811015613d4e578481815181101515613d1b57fe5b906020019060200201518282815181101515613d3357fe5b90602001906020020181815250508080600101915050613d05565b819250505092915050565b8173ffffffffffffffffffffffffffffffffffffffff16613d7982611af4565b73ffffffffffffffffffffffffffffffffffffffff16141515613d9b57600080fd5b613dee6001600260008573ffffffffffffffffffffffffffffffffffffffff1673ffffffffffffffffffffffffffffffffffffffff1681526020019081526020016000205461341a90919063ffffffff16565b600260008473ffffffffffffffffffffffffffffffffffffffff1673ffffffffffffffffffffffffffffffffffffffff16815260200190815260200160002081905550600080600083815260200190815260200160002060006101000a81548173ffffffffffffffffffffffffffffffffffffffff021916908373ffffffffffffffffffffffffffffffffffffffff1602179055505050565b600073ffffffffffffffffffffffffffffffffffffffff1660008083815260200190815260200160002060009054906101000a900473ffffffffffffffffffffffffffffffffffffffff1673ffffffffffffffffffffffffffffffffffffffff16141515613ef457600080fd5b8160008083815260200190815260200160002060006101000a81548173ffffffffffffffffffffffffffffffffffffffff021916908373ffffffffffffffffffffffffffffffffffffffff160217905550613f986001600260008573ffffffffffffffffffffffffffffffffffffffff1673ffffffffffffffffffffffffffffffffffffffff16815260200190815260200160002054612ec390919063ffffffff16565b600260008473ffffffffffffffffffffffffffffffffffffffff1673ffffffffffffffffffffffffffffffffffffffff168152602001908152602001600020819055505050565b600080823b905060008111915050919050565b600073ffffffffffffffffffffffffffffffffffffffff168273ffffffffffffffffffffffffffffffffffffffff161415151561402e57600080fd5b6140388282613343565b8173ffffffffffffffffffffffffffffffffffffffff16600073ffffffffffffffffffffffffffffffffffffffff167fddf252ad1be2c89b69c2b068fc378daa952ba7f163c4a11628f55a4df523b3ef836040518082815260200191505060405180910390a35050565b8280548282559060005260206000209081019282156140de579160200282015b828111156140dd5782518255916020019190600101906140c2565b5b5090506140eb9190614168565b5090565b82805482825590600052602060002090810192821561412b579160200282015b8281111561412a57825182559160200191906001019061410f565b5b5090506141389190614168565b5090565b815481835581811115614163578183600052602060002091820191016141629190614168565b5b505050565b61418a91905b8082111561418657600081600090555060010161416e565b5090565b905600a165627a7a7230582062e1cb0cd2504b491b148eccf62cc786672f0fe63aa8d3ebc3abeb3755ee05670029",
  "source": "pragma solidity ^0.4.21;\n\nimport \"./Composable.sol\";\nimport \"zeppelin-solidity/contracts/math/SafeMath.sol\";\n\n/**\n * @title Ethmoji\n * Ethmoji - a contract to mint and compose original emojis\n*/\ncontract Ethmoji is Composable {\n    using SafeMath for uint256;\n\n    // set proxy as the owner\n    bool internal _initialized;\n\n    string public constant NAME = \"Ethmoji\";\n    string public constant SYMBOL = \"EMJ\";\n\n    function Ethmoji() ERC721Token(\"Ethmoji\", \"EMJ\") public { }\n    \n    function initialize(address newOwner) public {\n        require(!_initialized);\n        isCompositionOnlyWithBaseLayers = true;\n        minCompositionFee = .001 ether;\n        owner = newOwner;\n        _initialized = true;\n    }\n\n    /**\n    * @dev Mints a composition emoji\n    * @param _tokenIds uint256[] the array of layers that will make up the composition\n    */\n    function compose(uint256[] _tokenIds,  uint256 _imageHash) public payable whenNotPaused {\n        Composable.compose(_tokenIds, _imageHash);\n\n        // Immediately pay out to layer owners\n        for (uint256 i = 0; i < _tokenIds.length; i++) {\n            _withdrawTo(ownerOf(_tokenIds[i]));\n        }\n    }\n\n// ----- PRIVATE FUNCTIONS ------------------------------------------------------------------------\n\n    /**\n    * @dev withdraw accumulated balance to the payee\n    * @param _payee address to which to withdraw to\n    */\n    function _withdrawTo(address _payee) private {\n        uint256 payment = payments[_payee];\n\n        if (payment != 0 && address(this).balance >= payment) {\n            totalPayments = totalPayments.sub(payment);\n            payments[_payee] = 0;\n            _payee.transfer(payment);\n        }\n    }\n}",
  "sourcePath": "/Users/devin/code/blockchain/ethmoji/ethmoji-contracts/contracts/Ethmoji.sol",
  "compiler": {
    "name": "solc",
    "version": "0.4.23+commit.124ca40d.Emscripten.clang"
  },
  "schemaVersion": "2.0.0",
  "updatedAt": "2018-05-13T22:13:09.455Z"
}