{
  "contractName": "EthmojiProxy",
  "abi": [
    {
      "constant": true,
      "inputs": [],
      "name": "proxyOwner",
      "outputs": [
        {
          "name": "owner",
          "type": "address"
        }
      ],
      "payable": false,
      "stateMutability": "view",
      "type": "function"
    },
    {
      "constant": false,
      "inputs": [
        {
          "name": "newOwner",
          "type": "address"
        }
      ],
      "name": "transferProxyOwnership",
      "outputs": [],
      "payable": false,
      "stateMutability": "nonpayable",
      "type": "function"
    },
    {
      "payable": true,
      "stateMutability": "payable",
      "type": "fallback"
    },
    {
      "anonymous": false,
      "inputs": [
        {
          "indexed": true,
          "name": "implementation",
          "type": "address"
        }
      ],
      "name": "Upgraded",
      "type": "event"
    },
    {
      "anonymous": false,
      "inputs": [
        {
          "indexed": false,
          "name": "previousOwner",
          "type": "address"
        },
        {
          "indexed": false,
          "name": "newOwner",
          "type": "address"
        }
      ],
      "name": "ProxyOwnershipTransferred",
      "type": "event"
    },
    {
      "constant": true,
      "inputs": [],
      "name": "implementation",
      "outputs": [
        {
          "name": "impl",
          "type": "address"
        }
      ],
      "payable": false,
      "stateMutability": "view",
      "type": "function"
    },
    {
      "constant": false,
      "inputs": [
        {
          "name": "newImplementation",
          "type": "address"
        }
      ],
      "name": "upgradeTo",
      "outputs": [],
      "payable": false,
      "stateMutability": "nonpayable",
      "type": "function"
    },
    {
      "constant": false,
      "inputs": [
        {
          "name": "newImplementation",
          "type": "address"
        },
        {
          "name": "data",
          "type": "bytes"
        }
      ],
      "name": "upgradeToAndCall",
      "outputs": [],
      "payable": true,
      "stateMutability": "payable",
      "type": "function"
    }
  ],
  "bytecode": "0x608060405261001c33610021640100000000026401000000009004565b610088565b600060405180807f6574686d6f6a692e696f2e73757065722e64757065722e617765736f6d652e7081526020017f726f78792e6f776e657200000000000000000000000000000000000000000000815250602a019050604051809103902090508181555050565b610744806100976000396000f30060806040526004361061006d576000357c0100000000000000000000000000000000000000000000000000000000900463ffffffff168063025313a2146100dc5780633659cfe6146101335780634f1ef286146101765780635c60da1b146101f2578063f1739cae14610249575b600061007761028c565b9050600073ffffffffffffffffffffffffffffffffffffffff168173ffffffffffffffffffffffffffffffffffffffff16141515156100b557600080fd5b60405136600082376000803683855af43d806000843e81600081146100d8578184f35b8184fd5b3480156100e857600080fd5b506100f16102f5565b604051808273ffffffffffffffffffffffffffffffffffffffff1673ffffffffffffffffffffffffffffffffffffffff16815260200191505060405180910390f35b34801561013f57600080fd5b50610174600480360381019080803573ffffffffffffffffffffffffffffffffffffffff16906020019092919050505061035e565b005b6101f0600480360381019080803573ffffffffffffffffffffffffffffffffffffffff169060200190929190803590602001908201803590602001908080601f01602080910402602001604051908101604052809392919081815260200183838082843782019150505050505091929192905050506103ab565b005b3480156101fe57600080fd5b5061020761028c565b604051808273ffffffffffffffffffffffffffffffffffffffff1673ffffffffffffffffffffffffffffffffffffffff16815260200191505060405180910390f35b34801561025557600080fd5b5061028a600480360381019080803573ffffffffffffffffffffffffffffffffffffffff16906020019092919050505061048c565b005b60008060405180807f6574686d6f6a692e696f2e73757065722e64757065722e617765736f6d652e7081526020017f726f78792e696d706c656d656e746174696f6e00000000000000000000000000815250603301905060405180910390209050805491505090565b60008060405180807f6574686d6f6a692e696f2e73757065722e64757065722e617765736f6d652e7081526020017f726f78792e6f776e657200000000000000000000000000000000000000000000815250602a01905060405180910390209050805491505090565b6103666102f5565b73ffffffffffffffffffffffffffffffffffffffff163373ffffffffffffffffffffffffffffffffffffffff1614151561039f57600080fd5b6103a8816105b3565b50565b6103b36102f5565b73ffffffffffffffffffffffffffffffffffffffff163373ffffffffffffffffffffffffffffffffffffffff161415156103ec57600080fd5b6103f58261035e565b3073ffffffffffffffffffffffffffffffffffffffff16348260405180828051906020019080838360005b8381101561043b578082015181840152602081019050610420565b50505050905090810190601f1680156104685780820380516001836020036101000a031916815260200191505b5091505060006040518083038185875af192505050151561048857600080fd5b5050565b6104946102f5565b73ffffffffffffffffffffffffffffffffffffffff163373ffffffffffffffffffffffffffffffffffffffff161415156104cd57600080fd5b600073ffffffffffffffffffffffffffffffffffffffff168173ffffffffffffffffffffffffffffffffffffffff161415151561050957600080fd5b7f5a3e66efaa1e445ebd894728a69d6959842ea1e97bd79b892797106e270efcd96105326102f5565b82604051808373ffffffffffffffffffffffffffffffffffffffff1673ffffffffffffffffffffffffffffffffffffffff1681526020018273ffffffffffffffffffffffffffffffffffffffff1673ffffffffffffffffffffffffffffffffffffffff1681526020019250505060405180910390a16105b08161064a565b50565b60006105bd61028c565b90508173ffffffffffffffffffffffffffffffffffffffff168173ffffffffffffffffffffffffffffffffffffffff16141515156105fa57600080fd5b610603826106b1565b8173ffffffffffffffffffffffffffffffffffffffff167fbc7cd75a20ee27fd9adebab32041f755214dbc6bffa90cc0225b39da2e5c2d3b60405160405180910390a25050565b600060405180807f6574686d6f6a692e696f2e73757065722e64757065722e617765736f6d652e7081526020017f726f78792e6f776e657200000000000000000000000000000000000000000000815250602a019050604051809103902090508181555050565b600060405180807f6574686d6f6a692e696f2e73757065722e64757065722e617765736f6d652e7081526020017f726f78792e696d706c656d656e746174696f6e0000000000000000000000000081525060330190506040518091039020905081815550505600a165627a7a723058201da6c2b88099727510c1013d60d9849b230631fe6b4014a9b0d181221367a6d80029",
  "source": "pragma solidity ^0.4.21;\n\nimport \"./Proxy.sol\";\nimport \"./OwnableProxy.sol\";\n\ncontract EthmojiProxy is Proxy, OwnableProxy { \n\n  /**\n   * @dev This event will be emitted every time the implementation gets upgraded\n   * @param implementation representing the address of the upgraded implementation\n   */\n  event Upgraded(address indexed implementation);\n\n  // Storage position of the address of the current implementation\n  bytes32 private constant implementationPosition = keccak256(\"ethmoji.io.super.duper.awesome.proxy.implementation\");\n\n  /**\n   * @dev Tells the address of the current implementation\n   * @return address of the current implementation\n   */\n  function implementation() public view returns (address impl) {\n    bytes32 position = implementationPosition;\n    assembly {\n      impl := sload(position)\n    }\n  }\n\n  /**\n   * @dev Sets the address of the current implementation\n   * @param newImplementation address representing the new implementation to be set\n   */\n  function setImplementation(address newImplementation) internal {\n    bytes32 position = implementationPosition;\n    assembly {\n      sstore(position, newImplementation)\n    }\n  }\n  \n  /**\n   * @dev Allows the proxy owner to upgrade the current version of the proxy.\n   * @param newImplementation representing the address of the new implementation to be set.\n   */\n  function upgradeTo(address newImplementation) public onlyProxyOwner {\n    _upgradeTo(newImplementation);\n  }\n\n    /**\n   * @dev Allows the proxy owner to upgrade the current version of the proxy and call the new implementation\n   * to initialize whatever is needed through a low level call.\n   * @param newImplementation representing the address of the new implementation to be set.\n   * @param data represents the msg.data to bet sent in the low level call. This parameter may include the function\n   * signature of the implementation to be called with the needed payload\n   */\n  function upgradeToAndCall(address newImplementation, bytes data) payable public onlyProxyOwner {\n    upgradeTo(newImplementation);\n    require(address(this).call.value(msg.value)(data));\n  }\n\n  /**\n   * @dev Upgrades the implementation address\n   * @param newImplementation representing the address of the new implementation to be set\n   */\n  function _upgradeTo(address newImplementation) internal {\n    address currentImplementation = implementation();\n    require(currentImplementation != newImplementation);\n    setImplementation(newImplementation);\n    emit Upgraded(newImplementation);\n  }\n}\n\n",
  "sourcePath": "/Users/devin/code/blockchain/ethmoji/ethmoji-contracts/contracts/EthmojiProxy.sol",
  "compiler": {
    "name": "solc",
    "version": "0.4.23+commit.124ca40d.Emscripten.clang"
  },
  "schemaVersion": "2.0.0",
  "updatedAt": "2018-04-22T21:25:08.089Z"
}