{
  "contractName": "Ethmoji",
  "abi": [
    {
      "constant": true,
      "inputs": [],
      "name": "totalPayments",
      "outputs": [
        {
          "name": "",
          "type": "uint256"
        }
      ],
      "payable": false,
      "stateMutability": "view",
      "type": "function"
    },
    {
      "constant": true,
      "inputs": [
        {
          "name": "",
          "type": "uint256"
        }
      ],
      "name": "tokenIdToCompPricePermission",
      "outputs": [
        {
          "name": "",
          "type": "bool"
        }
      ],
      "payable": false,
      "stateMutability": "view",
      "type": "function"
    },
    {
      "constant": false,
      "inputs": [
        {
          "name": "_to",
          "type": "address"
        },
        {
          "name": "_tokenId",
          "type": "uint256"
        }
      ],
      "name": "approve",
      "outputs": [],
      "payable": false,
      "stateMutability": "nonpayable",
      "type": "function"
    },
    {
      "constant": false,
      "inputs": [
        {
          "name": "_to",
          "type": "address"
        }
      ],
      "name": "payout",
      "outputs": [],
      "payable": false,
      "stateMutability": "nonpayable",
      "type": "function"
    },
    {
      "constant": true,
      "inputs": [],
      "name": "totalSupply",
      "outputs": [
        {
          "name": "",
          "type": "uint256"
        }
      ],
      "payable": false,
      "stateMutability": "view",
      "type": "function"
    },
    {
      "constant": true,
      "inputs": [
        {
          "name": "_tokenIds",
          "type": "uint256[]"
        }
      ],
      "name": "getTotalCompositionPrice",
      "outputs": [
        {
          "name": "",
          "type": "uint256"
        }
      ],
      "payable": false,
      "stateMutability": "view",
      "type": "function"
    },
    {
      "constant": true,
      "inputs": [
        {
          "name": "_tokenId",
          "type": "uint256"
        }
      ],
      "name": "getCompositionPrice",
      "outputs": [
        {
          "name": "",
          "type": "uint256"
        }
      ],
      "payable": false,
      "stateMutability": "view",
      "type": "function"
    },
    {
      "constant": true,
      "inputs": [
        {
          "name": "_tokenId",
          "type": "uint256"
        }
      ],
      "name": "approvedFor",
      "outputs": [
        {
          "name": "",
          "type": "address"
        }
      ],
      "payable": false,
      "stateMutability": "view",
      "type": "function"
    },
    {
      "constant": true,
      "inputs": [
        {
          "name": "",
          "type": "uint256"
        }
      ],
      "name": "tokenIdToCompositionPrice",
      "outputs": [
        {
          "name": "",
          "type": "uint256"
        }
      ],
      "payable": false,
      "stateMutability": "view",
      "type": "function"
    },
    {
      "constant": true,
      "inputs": [
        {
          "name": "",
          "type": "uint256"
        },
        {
          "name": "",
          "type": "uint256"
        }
      ],
      "name": "tokenIdToLayers",
      "outputs": [
        {
          "name": "",
          "type": "uint256"
        }
      ],
      "payable": false,
      "stateMutability": "view",
      "type": "function"
    },
    {
      "constant": false,
      "inputs": [],
      "name": "unpause",
      "outputs": [],
      "payable": false,
      "stateMutability": "nonpayable",
      "type": "function"
    },
    {
      "constant": true,
      "inputs": [
        {
          "name": "_owner",
          "type": "address"
        }
      ],
      "name": "tokensOf",
      "outputs": [
        {
          "name": "",
          "type": "uint256[]"
        }
      ],
      "payable": false,
      "stateMutability": "view",
      "type": "function"
    },
    {
      "constant": true,
      "inputs": [],
      "name": "paused",
      "outputs": [
        {
          "name": "",
          "type": "bool"
        }
      ],
      "payable": false,
      "stateMutability": "view",
      "type": "function"
    },
    {
      "constant": false,
      "inputs": [],
      "name": "withdrawPayments",
      "outputs": [],
      "payable": false,
      "stateMutability": "nonpayable",
      "type": "function"
    },
    {
      "constant": true,
      "inputs": [
        {
          "name": "_tokenId",
          "type": "uint256"
        }
      ],
      "name": "ownerOf",
      "outputs": [
        {
          "name": "",
          "type": "address"
        }
      ],
      "payable": false,
      "stateMutability": "view",
      "type": "function"
    },
    {
      "constant": true,
      "inputs": [
        {
          "name": "_owner",
          "type": "address"
        }
      ],
      "name": "balanceOf",
      "outputs": [
        {
          "name": "",
          "type": "uint256"
        }
      ],
      "payable": false,
      "stateMutability": "view",
      "type": "function"
    },
    {
      "constant": true,
      "inputs": [
        {
          "name": "",
          "type": "bytes32"
        }
      ],
      "name": "compositions",
      "outputs": [
        {
          "name": "",
          "type": "bool"
        }
      ],
      "payable": false,
      "stateMutability": "view",
      "type": "function"
    },
    {
      "constant": false,
      "inputs": [],
      "name": "pause",
      "outputs": [],
      "payable": false,
      "stateMutability": "nonpayable",
      "type": "function"
    },
    {
      "constant": true,
      "inputs": [],
      "name": "owner",
      "outputs": [
        {
          "name": "",
          "type": "address"
        }
      ],
      "payable": false,
      "stateMutability": "view",
      "type": "function"
    },
    {
      "constant": true,
      "inputs": [],
      "name": "NAME",
      "outputs": [
        {
          "name": "",
          "type": "string"
        }
      ],
      "payable": false,
      "stateMutability": "view",
      "type": "function"
    },
    {
      "constant": true,
      "inputs": [
        {
          "name": "",
          "type": "uint256"
        }
      ],
      "name": "imageHashes",
      "outputs": [
        {
          "name": "",
          "type": "uint256"
        }
      ],
      "payable": false,
      "stateMutability": "view",
      "type": "function"
    },
    {
      "constant": false,
      "inputs": [
        {
          "name": "_to",
          "type": "address"
        },
        {
          "name": "_tokenId",
          "type": "uint256"
        }
      ],
      "name": "transfer",
      "outputs": [],
      "payable": false,
      "stateMutability": "nonpayable",
      "type": "function"
    },
    {
      "constant": true,
      "inputs": [
        {
          "name": "",
          "type": "uint256"
        }
      ],
      "name": "tokenIdToCompositionPriceChangeRate",
      "outputs": [
        {
          "name": "",
          "type": "uint256"
        }
      ],
      "payable": false,
      "stateMutability": "view",
      "type": "function"
    },
    {
      "constant": true,
      "inputs": [
        {
          "name": "_tokenId",
          "type": "uint256"
        }
      ],
      "name": "getTokenLayers",
      "outputs": [
        {
          "name": "",
          "type": "uint256[]"
        }
      ],
      "payable": false,
      "stateMutability": "view",
      "type": "function"
    },
    {
      "constant": false,
      "inputs": [
        {
          "name": "_tokenId",
          "type": "uint256"
        }
      ],
      "name": "takeOwnership",
      "outputs": [],
      "payable": false,
      "stateMutability": "nonpayable",
      "type": "function"
    },
    {
      "constant": true,
      "inputs": [],
      "name": "isCompositionOnlyWithBaseLayers",
      "outputs": [
        {
          "name": "",
          "type": "bool"
        }
      ],
      "payable": false,
      "stateMutability": "view",
      "type": "function"
    },
    {
      "constant": false,
      "inputs": [
        {
          "name": "_price",
          "type": "uint256"
        }
      ],
      "name": "setMinCompositionFee",
      "outputs": [],
      "payable": false,
      "stateMutability": "nonpayable",
      "type": "function"
    },
    {
      "constant": true,
      "inputs": [],
      "name": "minCompositionFee",
      "outputs": [
        {
          "name": "",
          "type": "uint256"
        }
      ],
      "payable": false,
      "stateMutability": "view",
      "type": "function"
    },
    {
      "constant": true,
      "inputs": [],
      "name": "MAX_LAYERS",
      "outputs": [
        {
          "name": "",
          "type": "uint256"
        }
      ],
      "payable": false,
      "stateMutability": "view",
      "type": "function"
    },
    {
      "constant": true,
      "inputs": [
        {
          "name": "_tokenIds",
          "type": "uint256[]"
        },
        {
          "name": "_imageHash",
          "type": "uint256"
        }
      ],
      "name": "isValidComposition",
      "outputs": [
        {
          "name": "",
          "type": "bool"
        }
      ],
      "payable": false,
      "stateMutability": "view",
      "type": "function"
    },
    {
      "constant": false,
      "inputs": [
        {
          "name": "_tokenId",
          "type": "uint256"
        },
        {
          "name": "_price",
          "type": "uint256"
        }
      ],
      "name": "setCompositionPrice",
      "outputs": [],
      "payable": false,
      "stateMutability": "nonpayable",
      "type": "function"
    },
    {
      "constant": true,
      "inputs": [
        {
          "name": "",
          "type": "address"
        }
      ],
      "name": "payments",
      "outputs": [
        {
          "name": "",
          "type": "uint256"
        }
      ],
      "payable": false,
      "stateMutability": "view",
      "type": "function"
    },
    {
      "constant": false,
      "inputs": [
        {
          "name": "_to",
          "type": "address"
        },
        {
          "name": "_compositionPrice",
          "type": "uint256"
        },
        {
          "name": "_changeRate",
          "type": "uint256"
        },
        {
          "name": "_changeableCompPrice",
          "type": "bool"
        },
        {
          "name": "_imageHash",
          "type": "uint256"
        }
      ],
      "name": "mintTo",
      "outputs": [],
      "payable": false,
      "stateMutability": "nonpayable",
      "type": "function"
    },
    {
      "constant": false,
      "inputs": [
        {
          "name": "newOwner",
          "type": "address"
        }
      ],
      "name": "transferOwnership",
      "outputs": [],
      "payable": false,
      "stateMutability": "nonpayable",
      "type": "function"
    },
    {
      "constant": true,
      "inputs": [],
      "name": "SYMBOL",
      "outputs": [
        {
          "name": "",
          "type": "string"
        }
      ],
      "payable": false,
      "stateMutability": "view",
      "type": "function"
    },
    {
      "anonymous": false,
      "inputs": [
        {
          "indexed": false,
          "name": "tokenId",
          "type": "uint256"
        }
      ],
      "name": "BaseTokenCreated",
      "type": "event"
    },
    {
      "anonymous": false,
      "inputs": [
        {
          "indexed": false,
          "name": "tokenId",
          "type": "uint256"
        },
        {
          "indexed": false,
          "name": "layers",
          "type": "uint256[]"
        },
        {
          "indexed": true,
          "name": "owner",
          "type": "address"
        }
      ],
      "name": "CompositionTokenCreated",
      "type": "event"
    },
    {
      "anonymous": false,
      "inputs": [
        {
          "indexed": false,
          "name": "tokenId",
          "type": "uint256"
        },
        {
          "indexed": false,
          "name": "price",
          "type": "uint256"
        },
        {
          "indexed": true,
          "name": "owner",
          "type": "address"
        }
      ],
      "name": "CompositionPriceChanged",
      "type": "event"
    },
    {
      "anonymous": false,
      "inputs": [
        {
          "indexed": false,
          "name": "tokenId",
          "type": "uint256"
        },
        {
          "indexed": false,
          "name": "amount",
          "type": "uint256"
        },
        {
          "indexed": true,
          "name": "owner",
          "type": "address"
        }
      ],
      "name": "RoyaltiesPaid",
      "type": "event"
    },
    {
      "anonymous": false,
      "inputs": [],
      "name": "Pause",
      "type": "event"
    },
    {
      "anonymous": false,
      "inputs": [],
      "name": "Unpause",
      "type": "event"
    },
    {
      "anonymous": false,
      "inputs": [
        {
          "indexed": true,
          "name": "previousOwner",
          "type": "address"
        },
        {
          "indexed": true,
          "name": "newOwner",
          "type": "address"
        }
      ],
      "name": "OwnershipTransferred",
      "type": "event"
    },
    {
      "anonymous": false,
      "inputs": [
        {
          "indexed": true,
          "name": "_from",
          "type": "address"
        },
        {
          "indexed": true,
          "name": "_to",
          "type": "address"
        },
        {
          "indexed": false,
          "name": "_tokenId",
          "type": "uint256"
        }
      ],
      "name": "Transfer",
      "type": "event"
    },
    {
      "anonymous": false,
      "inputs": [
        {
          "indexed": true,
          "name": "_owner",
          "type": "address"
        },
        {
          "indexed": true,
          "name": "_approved",
          "type": "address"
        },
        {
          "indexed": false,
          "name": "_tokenId",
          "type": "uint256"
        }
      ],
      "name": "Approval",
      "type": "event"
    },
    {
      "constant": false,
      "inputs": [
        {
          "name": "newOwner",
          "type": "address"
        }
      ],
      "name": "initialize",
      "outputs": [],
      "payable": false,
      "stateMutability": "nonpayable",
      "type": "function"
    },
    {
      "constant": false,
      "inputs": [
        {
          "name": "_tokenIds",
          "type": "uint256[]"
        },
        {
          "name": "_imageHash",
          "type": "uint256"
        }
      ],
      "name": "compose",
      "outputs": [],
      "payable": true,
      "stateMutability": "payable",
      "type": "function"
    },
    {
      "constant": true,
      "inputs": [],
      "name": "name",
      "outputs": [
        {
          "name": "",
          "type": "string"
        }
      ],
      "payable": false,
      "stateMutability": "pure",
      "type": "function"
    },
    {
      "constant": true,
      "inputs": [],
      "name": "symbol",
      "outputs": [
        {
          "name": "",
          "type": "string"
        }
      ],
      "payable": false,
      "stateMutability": "pure",
      "type": "function"
    }
  ],
  "bytecode": "0x60806040526000600860006101000a81548160ff02191690831515021790555033600560006101000a81548173ffffffffffffffffffffffffffffffffffffffff021916908373ffffffffffffffffffffffffffffffffffffffff16021790555061352c8061006f6000396000f3006080604052600436106101e2576000357c0100000000000000000000000000000000000000000000000000000000900463ffffffff1680625b4487146101e7578063030838831461021257806304ff392e1461027557806306fdde03146102ba578063095ea7b31461034a5780630b7e9c441461039757806318160ddd146103da5780631983111d146104055780631f89e9111461047f5780632a6dd48f146104c057806338e50d3c1461052d5780633f27afa71461056e5780633f4ba83a146105b95780635a3f2672146105d05780635c975abb146106685780636103d70b146106975780636352211e146106ae57806370a082311461071b57806370e2b625146107725780638456cb59146107bb5780638da5cb5b146107d257806395d89b4114610829578063a3f4df7e146108b9578063a8d4ab6c14610949578063a9059cbb1461098a578063a919e425146109d7578063aae07cd014610a18578063b2e6ceeb14610a9a578063b9e3a8dd14610ac7578063befc764214610af6578063c4d66de814610b23578063c73ec2eb14610b66578063c829b0e314610b91578063d2769df114610bbc578063d5e0d8fc14610c44578063e2982c2114610c7b578063ef95957714610cd2578063f2fde38b14610d3f578063f76f8d7814610d82575b600080fd5b3480156101f357600080fd5b506101fc610e12565b6040518082815260200191505060405180910390f35b6102736004803603810190808035906020019082018035906020019080806020026020016040519081016040528093929190818152602001838360200280828437820191505050505050919291929080359060200190929190505050610e18565b005b34801561028157600080fd5b506102a060048036038101908080359060200190929190505050610e88565b604051808215151515815260200191505060405180910390f35b3480156102c657600080fd5b506102cf610ea8565b6040518080602001828103825283818151815260200191508051906020019080838360005b8381101561030f5780820151818401526020810190506102f4565b50505050905090810190601f16801561033c5780820380516001836020036101000a031916815260200191505b509250505060405180910390f35b34801561035657600080fd5b50610395600480360381019080803573ffffffffffffffffffffffffffffffffffffffff16906020019092919080359060200190929190505050610ee5565b005b3480156103a357600080fd5b506103d8600480360381019080803573ffffffffffffffffffffffffffffffffffffffff169060200190929190505050611078565b005b3480156103e657600080fd5b506103ef61113d565b6040518082815260200191505060405180910390f35b34801561041157600080fd5b5061046960048036038101908080359060200190820180359060200190808060200260200160405190810160405280939291908181526020018383602002808284378201915050505050509192919290505050611146565b6040518082815260200191505060405180910390f35b34801561048b57600080fd5b506104aa600480360381019080803590602001909291905050506111eb565b6040518082815260200191505060405180910390f35b3480156104cc57600080fd5b506104eb60048036038101908080359060200190929190505050611208565b604051808273ffffffffffffffffffffffffffffffffffffffff1673ffffffffffffffffffffffffffffffffffffffff16815260200191505060405180910390f35b34801561053957600080fd5b5061055860048036038101908080359060200190929190505050611245565b6040518082815260200191505060405180910390f35b34801561057a57600080fd5b506105a3600480360381019080803590602001909291908035906020019092919050505061125d565b6040518082815260200191505060405180910390f35b3480156105c557600080fd5b506105ce61128d565b005b3480156105dc57600080fd5b50610611600480360381019080803573ffffffffffffffffffffffffffffffffffffffff16906020019092919050505061134d565b6040518080602001828103825283818151815260200191508051906020019060200280838360005b83811015610654578082015181840152602081019050610639565b505050509050019250505060405180910390f35b34801561067457600080fd5b5061067d6113e4565b604051808215151515815260200191505060405180910390f35b3480156106a357600080fd5b506106ac6113f7565b005b3480156106ba57600080fd5b506106d960048036038101908080359060200190929190505050611516565b604051808273ffffffffffffffffffffffffffffffffffffffff1673ffffffffffffffffffffffffffffffffffffffff16815260200191505060405180910390f35b34801561072757600080fd5b5061075c600480360381019080803573ffffffffffffffffffffffffffffffffffffffff169060200190929190505050611594565b6040518082815260200191505060405180910390f35b34801561077e57600080fd5b506107a160048036038101908080356000191690602001909291905050506115e0565b604051808215151515815260200191505060405180910390f35b3480156107c757600080fd5b506107d0611600565b005b3480156107de57600080fd5b506107e76116c1565b604051808273ffffffffffffffffffffffffffffffffffffffff1673ffffffffffffffffffffffffffffffffffffffff16815260200191505060405180910390f35b34801561083557600080fd5b5061083e6116e7565b6040518080602001828103825283818151815260200191508051906020019080838360005b8381101561087e578082015181840152602081019050610863565b50505050905090810190601f1680156108ab5780820380516001836020036101000a031916815260200191505b509250505060405180910390f35b3480156108c557600080fd5b506108ce611724565b6040518080602001828103825283818151815260200191508051906020019080838360005b8381101561090e5780820151818401526020810190506108f3565b50505050905090810190601f16801561093b5780820380516001836020036101000a031916815260200191505b509250505060405180910390f35b34801561095557600080fd5b506109746004803603810190808035906020019092919050505061175d565b6040518082815260200191505060405180910390f35b34801561099657600080fd5b506109d5600480360381019080803573ffffffffffffffffffffffffffffffffffffffff16906020019092919080359060200190929190505050611775565b005b3480156109e357600080fd5b50610a02600480360381019080803590602001909291905050506117c8565b6040518082815260200191505060405180910390f35b348015610a2457600080fd5b50610a43600480360381019080803590602001909291905050506117e0565b6040518080602001828103825283818151815260200191508051906020019060200280838360005b83811015610a86578082015181840152602081019050610a6b565b505050509050019250505060405180910390f35b348015610aa657600080fd5b50610ac56004803603810190808035906020019092919050505061184b565b005b348015610ad357600080fd5b50610adc611876565b604051808215151515815260200191505060405180910390f35b348015610b0257600080fd5b50610b2160048036038101908080359060200190929190505050611889565b005b348015610b2f57600080fd5b50610b64600480360381019080803573ffffffffffffffffffffffffffffffffffffffff1690602001909291905050506118ef565b005b348015610b7257600080fd5b50610b7b611993565b6040518082815260200191505060405180910390f35b348015610b9d57600080fd5b50610ba6611999565b6040518082815260200191505060405180910390f35b348015610bc857600080fd5b50610c2a600480360381019080803590602001908201803590602001908080602002602001604051908101604052809392919081815260200183836020028082843782019150505050505091929192908035906020019092919050505061199e565b604051808215151515815260200191505060405180910390f35b348015610c5057600080fd5b50610c7960048036038101908080359060200190929190803590602001909291905050506119d9565b005b348015610c8757600080fd5b50610cbc600480360381019080803573ffffffffffffffffffffffffffffffffffffffff169060200190929190505050611a5e565b6040518082815260200191505060405180910390f35b348015610cde57600080fd5b50610d3d600480360381019080803573ffffffffffffffffffffffffffffffffffffffff169060200190929190803590602001909291908035906020019092919080351515906020019092919080359060200190929190505050611a76565b005b348015610d4b57600080fd5b50610d80600480360381019080803573ffffffffffffffffffffffffffffffffffffffff169060200190929190505050611c85565b005b348015610d8e57600080fd5b50610d97611ddd565b6040518080602001828103825283818151815260200191508051906020019080838360005b83811015610dd7578082015181840152602081019050610dbc565b50505050905090810190601f168015610e045780820380516001836020036101000a031916815260200191505b509250505060405180910390f35b60075481565b6000600860009054906101000a900460ff16151515610e3657600080fd5b610e408383611e16565b600090505b8251811015610e8357610e76610e718483815181101515610e6257fe5b90602001906020020151611516565b612467565b8080600101915050610e45565b505050565b600c6020528060005260406000206000915054906101000a900460ff1681565b60606040805190810160405280600781526020017f4574686d6f6a6900000000000000000000000000000000000000000000000000815250905090565b6000813373ffffffffffffffffffffffffffffffffffffffff16610f0882611516565b73ffffffffffffffffffffffffffffffffffffffff16141515610f2a57600080fd5b610f3383611516565b91508173ffffffffffffffffffffffffffffffffffffffff168473ffffffffffffffffffffffffffffffffffffffff1614151515610f7057600080fd5b6000610f7b84611208565b73ffffffffffffffffffffffffffffffffffffffff16141580610fb5575060008473ffffffffffffffffffffffffffffffffffffffff1614155b1561107257836002600085815260200190815260200160002060006101000a81548173ffffffffffffffffffffffffffffffffffffffff021916908373ffffffffffffffffffffffffffffffffffffffff1602179055508373ffffffffffffffffffffffffffffffffffffffff168273ffffffffffffffffffffffffffffffffffffffff167f8c5be1e5ebec7d5bd14f71427d1e84f3dd0314c0f7b2291e5b200ac8c7c3b925856040518082815260200191505060405180910390a35b50505050565b600560009054906101000a900473ffffffffffffffffffffffffffffffffffffffff1673ffffffffffffffffffffffffffffffffffffffff163373ffffffffffffffffffffffffffffffffffffffff161415156110d457600080fd5b60006007819055508073ffffffffffffffffffffffffffffffffffffffff166108fc3073ffffffffffffffffffffffffffffffffffffffff16319081150290604051600060405180830381858888f19350505050158015611139573d6000803e3d6000fd5b5050565b60008054905090565b6000806000809150600090505b83518110156111ca5761117c848281518110151561116d57fe5b90602001906020020151612584565b151561118757600080fd5b6111bb82600a6000878581518110151561119d57fe5b906020019060200201518152602001908152602001600020546125a7565b91508080600101915050611153565b6111df6111d88360696125c5565b6064612600565b91508192505050919050565b6000600a6000838152602001908152602001600020549050919050565b60006002600083815260200190815260200160002060009054906101000a900473ffffffffffffffffffffffffffffffffffffffff169050919050565b600a6020528060005260406000206000915090505481565b600d6020528160005260406000208181548110151561127857fe5b90600052602060002001600091509150505481565b600560009054906101000a900473ffffffffffffffffffffffffffffffffffffffff1673ffffffffffffffffffffffffffffffffffffffff163373ffffffffffffffffffffffffffffffffffffffff161415156112e957600080fd5b600860009054906101000a900460ff16151561130457600080fd5b6000600860006101000a81548160ff0219169083151502179055507f7805862f689e2f13df9f062ff482ad3ad112aca9e0847911ed832e158c525b3360405160405180910390a1565b6060600360008373ffffffffffffffffffffffffffffffffffffffff1673ffffffffffffffffffffffffffffffffffffffff1681526020019081526020016000208054806020026020016040519081016040528092919081815260200182805480156113d857602002820191906000526020600020905b8154815260200190600101908083116113c4575b50505050509050919050565b600860009054906101000a900460ff1681565b600080339150600660008373ffffffffffffffffffffffffffffffffffffffff1673ffffffffffffffffffffffffffffffffffffffff1681526020019081526020016000205490506000811415151561144f57600080fd5b803073ffffffffffffffffffffffffffffffffffffffff16311015151561147557600080fd5b61148a8160075461261b90919063ffffffff16565b6007819055506000600660008473ffffffffffffffffffffffffffffffffffffffff1673ffffffffffffffffffffffffffffffffffffffff168152602001908152602001600020819055508173ffffffffffffffffffffffffffffffffffffffff166108fc829081150290604051600060405180830381858888f19350505050151561151257fe5b5050565b6000806001600084815260200190815260200160002060009054906101000a900473ffffffffffffffffffffffffffffffffffffffff169050600073ffffffffffffffffffffffffffffffffffffffff168173ffffffffffffffffffffffffffffffffffffffff161415151561158b57600080fd5b80915050919050565b6000600360008373ffffffffffffffffffffffffffffffffffffffff1673ffffffffffffffffffffffffffffffffffffffff168152602001908152602001600020805490509050919050565b600e6020528060005260406000206000915054906101000a900460ff1681565b600560009054906101000a900473ffffffffffffffffffffffffffffffffffffffff1673ffffffffffffffffffffffffffffffffffffffff163373ffffffffffffffffffffffffffffffffffffffff1614151561165c57600080fd5b600860009054906101000a900460ff1615151561167857600080fd5b6001600860006101000a81548160ff0219169083151502179055507f6985a02210a168e66602d3235cb6db0e70f92b3ba4d376a33c0f3d9434bff62560405160405180910390a1565b600560009054906101000a900473ffffffffffffffffffffffffffffffffffffffff1681565b60606040805190810160405280600381526020017f454d4a0000000000000000000000000000000000000000000000000000000000815250905090565b6040805190810160405280600781526020017f4574686d6f6a690000000000000000000000000000000000000000000000000081525081565b600f6020528060005260406000206000915090505481565b803373ffffffffffffffffffffffffffffffffffffffff1661179682611516565b73ffffffffffffffffffffffffffffffffffffffff161415156117b857600080fd5b6117c3338484612634565b505050565b600b6020528060005260406000206000915090505481565b6060600d600083815260200190815260200160002080548060200260200160405190810160405280929190818152602001828054801561183f57602002820191906000526020600020905b81548152602001906001019080831161182b575b50505050509050919050565b611855338261277d565b151561186057600080fd5b61187361186c82611516565b3383612634565b50565b601060009054906101000a900460ff1681565b600560009054906101000a900473ffffffffffffffffffffffffffffffffffffffff1673ffffffffffffffffffffffffffffffffffffffff163373ffffffffffffffffffffffffffffffffffffffff161415156118e557600080fd5b8060098190555050565b601060019054906101000a900460ff1615151561190b57600080fd5b6001601060006101000a81548160ff02191690831515021790555066038d7ea4c6800060098190555080600560006101000a81548173ffffffffffffffffffffffffffffffffffffffff021916908373ffffffffffffffffffffffffffffffffffffffff1602179055506001601060016101000a81548160ff02191690831515021790555050565b60095481565b606481565b6000601060009054906101000a900460ff16156119c6576119bf83836127be565b90506119d3565b6119d083836129b2565b90505b92915050565b813373ffffffffffffffffffffffffffffffffffffffff166119fa82611516565b73ffffffffffffffffffffffffffffffffffffffff16141515611a1c57600080fd5b60011515600c600085815260200190815260200160002060009054906101000a900460ff161515141515611a4f57600080fd5b611a598383612bd1565b505050565b60066020528060005260406000206000915090505481565b6000600560009054906101000a900473ffffffffffffffffffffffffffffffffffffffff1673ffffffffffffffffffffffffffffffffffffffff163373ffffffffffffffffffffffffffffffffffffffff16141515611ad457600080fd5b611adc612c54565b9050611ae88682612c76565b60206040519081016040528082815250600d6000838152602001908152602001600020906001611b19929190613415565b50611b85600d6000838152602001908152602001600020805480602002602001604051908101604052809291908181526020018280548015611b7a57602002820191906000526020600020905b815481526020019060010190808311611b66575b505050505083612d10565b1515611b9057600080fd5b6001600e6000602060405190810160405280858152506040518082600160200280838360005b83811015611bd1578082015181840152602081019050611bb6565b5050505090500191505060405180910390206000191660001916815260200190815260200160002060006101000a81548160ff02191690831515021790555080600f6000848152602001908152602001600020819055507f3f5bdceccefc96a1f5b67e0c030e1f5f27d4f940582f4114ee08d3599912e216816040518082815260200191505060405180910390a1611c698186612bd1565b611c738185612daa565b611c7d8184612dc6565b505050505050565b600560009054906101000a900473ffffffffffffffffffffffffffffffffffffffff1673ffffffffffffffffffffffffffffffffffffffff163373ffffffffffffffffffffffffffffffffffffffff16141515611ce157600080fd5b600073ffffffffffffffffffffffffffffffffffffffff168173ffffffffffffffffffffffffffffffffffffffff1614151515611d1d57600080fd5b8073ffffffffffffffffffffffffffffffffffffffff16600560009054906101000a900473ffffffffffffffffffffffffffffffffffffffff1673ffffffffffffffffffffffffffffffffffffffff167f8be0079c531659141344cd1fd0a4f28419497f9722a3daafe3b4186f6b6457e060405160405180910390a380600560006101000a81548173ffffffffffffffffffffffffffffffffffffffff021916908373ffffffffffffffffffffffffffffffffffffffff16021790555050565b6040805190810160405280600381526020017f454d4a000000000000000000000000000000000000000000000000000000000081525081565b6000606060008060006060600080600080600860009054906101000a900460ff16151515611e4357600080fd5b60018c51111515611e5357600080fd5b611e5c8c611146565b9950600073ffffffffffffffffffffffffffffffffffffffff163373ffffffffffffffffffffffffffffffffffffffff1614158015611e9b5750893410155b1515611ea657600080fd5b60648c5111151515611eb757600080fd5b6064604051908082528060200260200182016040528015611ee75781602001602082028038833980820191505090505b50985060009750600096505b8b518710156121dc578b87815181101515611f0a57fe5b906020019060200201519550611f1f86612584565b1515611f2a57600080fd5b600d6000878152602001908152602001600020805480602002602001604051908101604052809291908181526020018280548015611f8757602002820191906000526020600020905b815481526020019060010190808311611f73575b50505050509450601060009054906101000a900460ff1615611fb45760018551141515611fb357600080fd5b5b60648551101515611fc457600080fd5b600093505b84518410156120a557606488101515611fe157600080fd5b600092505b885183101561205e578484815181101515611ffd57fe5b90602001906020020151898481518110151561201557fe5b906020019060200201511415151561202c57600080fd5b6000898481518110151561203c57fe5b9060200190602002015114156120515761205e565b8280600101935050611fe6565b848481518110151561206c57fe5b90602001906020020151898981518110151561208457fe5b90602001906020020181815250506001880197508380600101945050611fc9565b600073ffffffffffffffffffffffffffffffffffffffff166120c687611516565b73ffffffffffffffffffffffffffffffffffffffff16141515156120e957600080fd5b61210e6120f587611516565b600a600089815260200190815260200160002054612df5565b61211786611516565b73ffffffffffffffffffffffffffffffffffffffff167faa044fd0677f595122a532475e14efe539fe126d9ec7d9b7e66d7fcbec3636be87600a60008a815260200190815260200160002054604051808381526020018281526020019250505060405180910390a26121b8600b600088815260200190815260200160002054600a6000898152602001908152602001600020546125a790919063ffffffff16565b600a6000888152602001908152602001600020819055508680600101975050611ef3565b6121e4612c54565b91506121f08989612ea9565b600d60008481526020019081526020016000209080519060200190612216929190613462565b50612282600d600084815260200190815260200160002080548060200260200160405190810160405280929190818152602001828054801561227757602002820191906000526020600020905b815481526020019060010190808311612263575b50505050508c612d10565b151561228d57600080fd5b6001600e6000600d60008681526020019081526020016000206040518082805480156122d857602002820191906000526020600020905b8154815260200190600101908083116122c4575b505091505060405180910390206000191660001916815260200190815260200160002060006101000a81548160ff02191690831515021790555081600f60008d8152602001908152602001600020819055506123343383612c76565b8934111561239057612346348b61261b565b90503373ffffffffffffffffffffffffffffffffffffffff166108fc829081150290604051600060405180830381858888f1935050505015801561238e573d6000803e3d6000fd5b505b601060009054906101000a900460ff1615156123b3576123b282600954612bd1565b5b3373ffffffffffffffffffffffffffffffffffffffff167f8258990f4da6775c9379703a14a2d112f3131e6b3a3840d1f6c25ccfe1051b9d83600d60008681526020019081526020016000206040518083815260200180602001828103825283818154815260200191508054801561244a57602002820191906000526020600020905b815481526020019060010190808311612436575b5050935050505060405180910390a2505050505050505050505050565b6000600660008373ffffffffffffffffffffffffffffffffffffffff1673ffffffffffffffffffffffffffffffffffffffff168152602001908152602001600020549050600081141580156124d35750803073ffffffffffffffffffffffffffffffffffffffff163110155b15612580576124ed8160075461261b90919063ffffffff16565b6007819055506000600660008473ffffffffffffffffffffffffffffffffffffffff1673ffffffffffffffffffffffffffffffffffffffff168152602001908152602001600020819055508173ffffffffffffffffffffffffffffffffffffffff166108fc829081150290604051600060405180830381858888f1935050505015801561257e573d6000803e3d6000fd5b505b5050565b600080600d60008481526020019081526020016000208054905014159050919050565b60008082840190508381101515156125bb57fe5b8091505092915050565b60008060008414156125da57600091506125f9565b82840290508284828115156125eb57fe5b041415156125f557fe5b8091505b5092915050565b600080828481151561260e57fe5b0490508091505092915050565b600082821115151561262957fe5b818303905092915050565b600073ffffffffffffffffffffffffffffffffffffffff168273ffffffffffffffffffffffffffffffffffffffff161415151561267057600080fd5b61267981611516565b73ffffffffffffffffffffffffffffffffffffffff168273ffffffffffffffffffffffffffffffffffffffff16141515156126b357600080fd5b8273ffffffffffffffffffffffffffffffffffffffff166126d382611516565b73ffffffffffffffffffffffffffffffffffffffff161415156126f557600080fd5b6126ff8382612f39565b6127098382613022565b61271382826132a7565b8173ffffffffffffffffffffffffffffffffffffffff168373ffffffffffffffffffffffffffffffffffffffff167fddf252ad1be2c89b69c2b068fc378daa952ba7f163c4a11628f55a4df523b3ef836040518082815260200191505060405180910390a3505050565b60008273ffffffffffffffffffffffffffffffffffffffff1661279f83611208565b73ffffffffffffffffffffffffffffffffffffffff1614905092915050565b6000606060008060648651111515156127d657600080fd5b85516040519080825280602002602001820160405280156128065781602001602082028038833980820191505090505b509250600091505b855182101561299c57612837868381518110151561282857fe5b90602001906020020151612584565b151561284657600093506129a9565b6001600d6000888581518110151561285a57fe5b9060200190602002015181526020019081526020016000208054905014151561288657600093506129a9565b600090505b825181101561298f57600d600087848151811015156128a657fe5b90602001906020020151815260200190815260200160002060008154811015156128cc57fe5b906000526020600020015483828151811015156128e557fe5b9060200190602002015114156128fe57600093506129a9565b6000838281518110151561290e57fe5b90602001906020020151141561298257600d6000878481518110151561293057fe5b906020019060200201518152602001908152602001600020600081548110151561295657fe5b9060005260206000200154838281518110151561296f57fe5b906020019060200201818152505061298f565b808060010191505061288b565b818060010192505061280e565b6129a68386612d10565b93505b50505092915050565b600060606000806000606060008060646040519080825280602002602001820160405280156129f05781602001602082028038833980820191505090505b5096506000955060648a511115612a0a5760009750612bc4565b600094505b8951851015612bae578985815181101515612a2657fe5b906020019060200201519350612a3b84612584565b1515612a4a5760009750612bc4565b600d6000858152602001908152602001600020805480602002602001604051908101604052809291908181526020018280548015612aa757602002820191906000526020600020905b815481526020019060010190808311612a93575b5050505050925060648351101515612abe57600080fd5b600091505b8251821015612ba157606486101515612adb57600080fd5b600090505b8651811015612b5a578282815181101515612af757fe5b906020019060200201518782815181101515612b0f57fe5b906020019060200201511415612b285760009750612bc4565b60008782815181101515612b3857fe5b906020019060200201511415612b4d57612b5a565b8080600101915050612ae0565b8282815181101515612b6857fe5b906020019060200201518787815181101515612b8057fe5b90602001906020020181815250506001860195508180600101925050612ac3565b8480600101955050612a0f565b612bc1612bbb8888612ea9565b8a612d10565b97505b5050505050505092915050565b6009548110151515612be257600080fd5b80600a6000848152602001908152602001600020819055503373ffffffffffffffffffffffffffffffffffffffff167f372883ed096f3aca24c33c36571b41f60a645cb114b5590f319e2e1c2606db6e8383604051808381526020018281526020019250505060405180910390a25050565b6000612c716001612c6361113d565b6125a790919063ffffffff16565b905090565b600073ffffffffffffffffffffffffffffffffffffffff168273ffffffffffffffffffffffffffffffffffffffff1614151515612cb257600080fd5b612cbc82826132a7565b8173ffffffffffffffffffffffffffffffffffffffff1660007fddf252ad1be2c89b69c2b068fc378daa952ba7f163c4a11628f55a4df523b3ef836040518082815260200191505060405180910390a35050565b6000801515600e60008560405180828051906020019060200280838360005b83811015612d4a578082015181840152602081019050612d2f565b5050505090500191505060405180910390206000191660001916815260200190815260200160002060009054906101000a900460ff161515148015612da257506000600f600084815260200190815260200160002054145b905092915050565b80600b6000848152602001908152602001600020819055505050565b80600c600084815260200190815260200160002060006101000a81548160ff0219169083151502179055505050565b612e4781600660008573ffffffffffffffffffffffffffffffffffffffff1673ffffffffffffffffffffffffffffffffffffffff168152602001908152602001600020546125a790919063ffffffff16565b600660008473ffffffffffffffffffffffffffffffffffffffff1673ffffffffffffffffffffffffffffffffffffffff16815260200190815260200160002081905550612e9f816007546125a790919063ffffffff16565b6007819055505050565b606080600083604051908082528060200260200182016040528015612edd5781602001602082028038833980820191505090505b509150600090505b83811015612f2e578481815181101515612efb57fe5b906020019060200201518282815181101515612f1357fe5b90602001906020020181815250508080600101915050612ee5565b819250505092915050565b8173ffffffffffffffffffffffffffffffffffffffff16612f5982611516565b73ffffffffffffffffffffffffffffffffffffffff16141515612f7b57600080fd5b60006002600083815260200190815260200160002060006101000a81548173ffffffffffffffffffffffffffffffffffffffff021916908373ffffffffffffffffffffffffffffffffffffffff16021790555060008273ffffffffffffffffffffffffffffffffffffffff167f8c5be1e5ebec7d5bd14f71427d1e84f3dd0314c0f7b2291e5b200ac8c7c3b925836040518082815260200191505060405180910390a35050565b60008060008473ffffffffffffffffffffffffffffffffffffffff1661304785611516565b73ffffffffffffffffffffffffffffffffffffffff1614151561306957600080fd5b6004600085815260200190815260200160002054925061309b600161308d87611594565b61261b90919063ffffffff16565b9150600360008673ffffffffffffffffffffffffffffffffffffffff1673ffffffffffffffffffffffffffffffffffffffff168152602001908152602001600020828154811015156130e957fe5b9060005260206000200154905060006001600086815260200190815260200160002060006101000a81548173ffffffffffffffffffffffffffffffffffffffff021916908373ffffffffffffffffffffffffffffffffffffffff16021790555080600360008773ffffffffffffffffffffffffffffffffffffffff1673ffffffffffffffffffffffffffffffffffffffff1681526020019081526020016000208481548110151561319657fe5b90600052602060002001819055506000600360008773ffffffffffffffffffffffffffffffffffffffff1673ffffffffffffffffffffffffffffffffffffffff168152602001908152602001600020838154811015156131f257fe5b9060005260206000200181905550600360008673ffffffffffffffffffffffffffffffffffffffff1673ffffffffffffffffffffffffffffffffffffffff16815260200190815260200160002080548091906001900361325291906134af565b506000600460008681526020019081526020016000208190555082600460008381526020019081526020016000208190555061329a600160005461261b90919063ffffffff16565b6000819055505050505050565b60008073ffffffffffffffffffffffffffffffffffffffff166001600084815260200190815260200160002060009054906101000a900473ffffffffffffffffffffffffffffffffffffffff1673ffffffffffffffffffffffffffffffffffffffff1614151561331657600080fd5b826001600084815260200190815260200160002060006101000a81548173ffffffffffffffffffffffffffffffffffffffff021916908373ffffffffffffffffffffffffffffffffffffffff16021790555061337183611594565b9050600360008473ffffffffffffffffffffffffffffffffffffffff1673ffffffffffffffffffffffffffffffffffffffff16815260200190815260200160002082908060018154018082558091505090600182039060005260206000200160009091929091909150555080600460008481526020019081526020016000208190555061340a60016000546125a790919063ffffffff16565b600081905550505050565b828054828255906000526020600020908101928215613451579160200282015b82811115613450578251825591602001919060010190613435565b5b50905061345e91906134db565b5090565b82805482825590600052602060002090810192821561349e579160200282015b8281111561349d578251825591602001919060010190613482565b5b5090506134ab91906134db565b5090565b8154818355818111156134d6578183600052602060002091820191016134d591906134db565b5b505050565b6134fd91905b808211156134f95760008160009055506001016134e1565b5090565b905600a165627a7a7230582065d3457ff42d7a30805bd8fa25ed7950cc937de13676b562ba40fb03b8d524680029",
  "source": "pragma solidity ^0.4.21;\n\nimport \"./Composable.sol\";\nimport \"zeppelin-solidity/contracts/math/SafeMath.sol\";\n\n/**\n * @title Ethmoji\n * Ethmoji - a contract to mint and compose original emojis\n*/\ncontract Ethmoji is Composable {\n    using SafeMath for uint256;\n\n    // set proxy as the owner\n    bool internal _initialized;\n\n    string public constant NAME = \"Ethmoji\";\n    string public constant SYMBOL = \"EMJ\";\n    \n    function initialize(address newOwner) public {\n        require(!_initialized);\n        isCompositionOnlyWithBaseLayers = true;\n        minCompositionFee = .001 ether;\n        owner = newOwner;\n        _initialized = true;\n    }\n\n    /**\n    * @dev Mints a composition emoji\n    * @param _tokenIds uint256[] the array of layers that will make up the composition\n    */\n    function compose(uint256[] _tokenIds,  uint256 _imageHash) public payable whenNotPaused {\n        Composable.compose(_tokenIds, _imageHash);\n\n        // Immediately pay out to layer owners\n        for (uint256 i = 0; i < _tokenIds.length; i++) {\n            _withdrawTo(ownerOf(_tokenIds[i]));\n        }\n    }\n\n// ----- EXPOSED METHODS --------------------------------------------------------------------------\n\n    /**\n    * @dev returns the name ETHMOJI\n    * @return string ETHMOJI\n    */\n    function name() public pure returns (string) {\n        return NAME;\n    }\n\n    /**\n    * @dev returns the name EMJ\n    * @return string EMJ\n    */\n    function symbol() public pure returns (string) {\n        return SYMBOL;\n    }\n\n// ----- PRIVATE FUNCTIONS ------------------------------------------------------------------------\n\n    /**\n    * @dev withdraw accumulated balance to the payee\n    * @param _payee address to which to withdraw to\n    */\n    function _withdrawTo(address _payee) private {\n        uint256 payment = payments[_payee];\n\n        if (payment != 0 && address(this).balance >= payment) {\n            totalPayments = totalPayments.sub(payment);\n            payments[_payee] = 0;\n            _payee.transfer(payment);\n        }\n    }\n}\n",
  "sourcePath": "/Users/devin/code/blockchain/ethmoji/ethmoji-contracts/contracts/Ethmoji.sol",
  "compiler": {
    "name": "solc",
    "version": "0.4.23+commit.124ca40d.Emscripten.clang"
  },
  "schemaVersion": "2.0.0",
  "updatedAt": "2018-04-22T21:25:08.663Z"
}